{
  "abi": [
    {
      "inputs": [],
      "name": "NotUPIOwner",
      "type": "error"
    },
    {
      "inputs": [],
      "name": "TransferFailed",
      "type": "error"
    },
    {
      "inputs": [
        {
          "internalType": "string",
          "name": "upi",
          "type": "string"
        }
      ],
      "name": "UPIAlreadyRegistered",
      "type": "error"
    },
    {
      "inputs": [
        {
          "internalType": "string",
          "name": "upi",
          "type": "string"
        }
      ],
      "name": "UPINotRegistered",
      "type": "error"
    },
    {
      "inputs": [],
      "name": "ZeroAddress",
      "type": "error"
    },
    {
      "anonymous": false,
      "inputs": [
        {
          "indexed": true,
          "internalType": "address",
          "name": "sender",
          "type": "address"
        },
        {
          "indexed": true,
          "internalType": "address",
          "name": "receiverWallet",
          "type": "address"
        },
        {
          "indexed": false,
          "internalType": "string",
          "name": "receiverUPI",
          "type": "string"
        },
        {
          "indexed": false,
          "internalType": "address",
          "name": "token",
          "type": "address"
        },
        {
          "indexed": false,
          "internalType": "uint256",
          "name": "amount",
          "type": "uint256"
        }
      ],
      "name": "PaymentExecuted",
      "type": "event"
    },
    {
      "anonymous": false,
      "inputs": [
        {
          "indexed": true,
          "internalType": "address",
          "name": "sender",
          "type": "address"
        },
        {
          "indexed": true,
          "internalType": "string",
          "name": "receiverUPI",
          "type": "string"
        },
        {
          "indexed": false,
          "internalType": "address",
          "name": "token",
          "type": "address"
        },
        {
          "indexed": false,
          "internalType": "uint256",
          "name": "amount",
          "type": "uint256"
        }
      ],
      "name": "PaymentRequested",
      "type": "event"
    },
    {
      "anonymous": false,
      "inputs": [
        {
          "indexed": true,
          "internalType": "address",
          "name": "user",
          "type": "address"
        },
        {
          "indexed": false,
          "internalType": "string",
          "name": "upi",
          "type": "string"
        }
      ],
      "name": "UPIRegistered",
      "type": "event"
    },
    {
      "anonymous": false,
      "inputs": [
        {
          "indexed": true,
          "internalType": "address",
          "name": "user",
          "type": "address"
        },
        {
          "indexed": false,
          "internalType": "string",
          "name": "upi",
          "type": "string"
        }
      ],
      "name": "UPIUnregistered",
      "type": "event"
    },
    {
      "inputs": [
        {
          "internalType": "address",
          "name": "",
          "type": "address"
        }
      ],
      "name": "addressToUPI",
      "outputs": [
        {
          "internalType": "string",
          "name": "",
          "type": "string"
        }
      ],
      "stateMutability": "view",
      "type": "function"
    },
    {
      "inputs": [
        {
          "internalType": "string",
          "name": "upi",
          "type": "string"
        }
      ],
      "name": "getWalletByUPI",
      "outputs": [
        {
          "internalType": "address",
          "name": "",
          "type": "address"
        }
      ],
      "stateMutability": "view",
      "type": "function"
    },
    {
      "inputs": [],
      "name": "myUPI",
      "outputs": [
        {
          "internalType": "string",
          "name": "",
          "type": "string"
        }
      ],
      "stateMutability": "view",
      "type": "function"
    },
    {
      "inputs": [
        {
          "internalType": "string",
          "name": "upi",
          "type": "string"
        }
      ],
      "name": "registerUPI",
      "outputs": [],
      "stateMutability": "nonpayable",
      "type": "function"
    },
    {
      "inputs": [
        {
          "internalType": "address",
          "name": "token",
          "type": "address"
        },
        {
          "internalType": "string",
          "name": "receiverUPI",
          "type": "string"
        },
        {
          "internalType": "uint256",
          "name": "amount",
          "type": "uint256"
        }
      ],
      "name": "sendPayment",
      "outputs": [],
      "stateMutability": "nonpayable",
      "type": "function"
    },
    {
      "inputs": [
        {
          "internalType": "string",
          "name": "receiverUPI",
          "type": "string"
        }
      ],
      "name": "sendPaymentETH",
      "outputs": [],
      "stateMutability": "payable",
      "type": "function"
    },
    {
      "inputs": [],
      "name": "unregisterUPI",
      "outputs": [],
      "stateMutability": "nonpayable",
      "type": "function"
    }
  ],
  "devdoc": {
    "kind": "dev",
    "methods": {},
    "version": 1
  },
  "evm": {
    "assembly": "    /* \"KryptUPI.sol\":180:3903  contract UPIRegistryPayments {... */\n  mstore(0x40, 0x80)\n  callvalue\n  dup1\n  iszero\n  tag_1\n  jumpi\n  0x00\n  dup1\n  revert\ntag_1:\n  pop\n  dataSize(sub_0)\n  dup1\n  dataOffset(sub_0)\n  0x00\n  codecopy\n  0x00\n  return\nstop\n\nsub_0: assembly {\n        /* \"KryptUPI.sol\":180:3903  contract UPIRegistryPayments {... */\n      mstore(0x40, 0x80)\n      jumpi(tag_1, lt(calldatasize, 0x04))\n      shr(0xe0, calldataload(0x00))\n      dup1\n      0x19f8a37e\n      gt\n      tag_9\n      jumpi\n      dup1\n      0x19f8a37e\n      eq\n      tag_5\n      jumpi\n      dup1\n      0x673cf6bc\n      eq\n      tag_6\n      jumpi\n      dup1\n      0x9af8297f\n      eq\n      tag_7\n      jumpi\n      dup1\n      0xd1dc4ad3\n      eq\n      tag_8\n      jumpi\n      0x00\n      dup1\n      revert\n    tag_9:\n      dup1\n      0x075895c7\n      eq\n      tag_2\n      jumpi\n      dup1\n      0x0cd4a7c0\n      eq\n      tag_3\n      jumpi\n      dup1\n      0x1124c7ef\n      eq\n      tag_4\n      jumpi\n    tag_1:\n      0x00\n      dup1\n      revert\n        /* \"KryptUPI.sol\":3192:3748  function sendPaymentETH(string calldata receiverUPI) external payable {... */\n    tag_2:\n      tag_10\n      tag_11\n      calldatasize\n      0x04\n      tag_12\n      jump\t// in\n    tag_11:\n      tag_13\n      jump\t// in\n    tag_10:\n      stop\n        /* \"KryptUPI.sol\":716:762  mapping(address => string) public addressToUPI */\n    tag_3:\n      callvalue\n      dup1\n      iszero\n      tag_14\n      jumpi\n      0x00\n      dup1\n      revert\n    tag_14:\n      pop\n      tag_15\n      tag_16\n      calldatasize\n      0x04\n      tag_17\n      jump\t// in\n    tag_16:\n      tag_18\n      jump\t// in\n    tag_15:\n      mload(0x40)\n      tag_19\n      swap2\n      swap1\n      tag_20\n      jump\t// in\n    tag_19:\n      mload(0x40)\n      dup1\n      swap2\n      sub\n      swap1\n      return\n        /* \"KryptUPI.sol\":1103:1772  function registerUPI(string calldata upi) external {... */\n    tag_4:\n      callvalue\n      dup1\n      iszero\n      tag_21\n      jumpi\n      0x00\n      dup1\n      revert\n    tag_21:\n      pop\n      tag_10\n      tag_23\n      calldatasize\n      0x04\n      tag_12\n      jump\t// in\n    tag_23:\n      tag_24\n      jump\t// in\n        /* \"KryptUPI.sol\":2255:3140  function sendPayment(address token, string calldata receiverUPI, uint256 amount) external {... */\n    tag_5:\n      callvalue\n      dup1\n      iszero\n      tag_25\n      jumpi\n      0x00\n      dup1\n      revert\n    tag_25:\n      pop\n      tag_10\n      tag_27\n      calldatasize\n      0x04\n      tag_28\n      jump\t// in\n    tag_27:\n      tag_29\n      jump\t// in\n        /* \"KryptUPI.sol\":2059:2179  function getWalletByUPI(string calldata upi) external view returns (address) {... */\n    tag_6:\n      callvalue\n      dup1\n      iszero\n      tag_30\n      jumpi\n      0x00\n      dup1\n      revert\n    tag_30:\n      pop\n      tag_31\n      tag_32\n      calldatasize\n      0x04\n      tag_12\n      jump\t// in\n    tag_32:\n      tag_33\n      jump\t// in\n    tag_31:\n      mload(0x40)\n      sub(shl(0xa0, 0x01), 0x01)\n        /* \"#utility.yul\":2320:2375   */\n      swap1\n      swap2\n      and\n        /* \"#utility.yul\":2302:2376   */\n      dup2\n      mstore\n        /* \"#utility.yul\":2290:2292   */\n      0x20\n        /* \"#utility.yul\":2275:2293   */\n      add\n        /* \"KryptUPI.sol\":2059:2179  function getWalletByUPI(string calldata upi) external view returns (address) {... */\n      tag_19\n        /* \"#utility.yul\":2156:2382   */\n      jump\n        /* \"KryptUPI.sol\":3795:3900  function myUPI() external view returns (string memory) {... */\n    tag_7:\n      callvalue\n      dup1\n      iszero\n      tag_36\n      jumpi\n      0x00\n      dup1\n      revert\n    tag_36:\n      pop\n      tag_15\n      tag_38\n      jump\t// in\n        /* \"KryptUPI.sol\":1780:2051  function unregisterUPI() external {... */\n    tag_8:\n      callvalue\n      dup1\n      iszero\n      tag_40\n      jumpi\n      0x00\n      dup1\n      revert\n    tag_40:\n      pop\n      tag_10\n      tag_42\n      jump\t// in\n        /* \"KryptUPI.sol\":3192:3748  function sendPaymentETH(string calldata receiverUPI) external payable {... */\n    tag_13:\n        /* \"KryptUPI.sol\":3293:3294  0 */\n      0x00\n        /* \"KryptUPI.sol\":3281:3290  msg.value */\n      callvalue\n        /* \"KryptUPI.sol\":3281:3294  msg.value > 0 */\n      gt\n        /* \"KryptUPI.sol\":3273:3321  require(msg.value > 0, \"ETH amount must be > 0\") */\n      tag_44\n      jumpi\n      mload(0x40)\n      shl(0xe5, 0x461bcd)\n      dup2\n      mstore\n        /* \"#utility.yul\":2589:2591   */\n      0x20\n        /* \"KryptUPI.sol\":3273:3321  require(msg.value > 0, \"ETH amount must be > 0\") */\n      0x04\n      dup3\n      add\n        /* \"#utility.yul\":2571:2592   */\n      mstore\n        /* \"#utility.yul\":2628:2630   */\n      0x16\n        /* \"#utility.yul\":2608:2626   */\n      0x24\n      dup3\n      add\n        /* \"#utility.yul\":2601:2631   */\n      mstore\n        /* \"#utility.yul\":2667:2691   */\n      0x45544820616d6f756e74206d757374206265203e203000000000000000000000\n        /* \"#utility.yul\":2647:2665   */\n      0x44\n      dup3\n      add\n        /* \"#utility.yul\":2640:2692   */\n      mstore\n        /* \"#utility.yul\":2709:2727   */\n      0x64\n      add\n        /* \"KryptUPI.sol\":3273:3321  require(msg.value > 0, \"ETH amount must be > 0\") */\n    tag_45:\n      mload(0x40)\n      dup1\n      swap2\n      sub\n      swap1\n      revert\n    tag_44:\n        /* \"KryptUPI.sol\":3334:3350  address receiver */\n      0x00\n        /* \"KryptUPI.sol\":3353:3365  upiToAddress */\n      0x01\n        /* \"KryptUPI.sol\":3366:3377  receiverUPI */\n      dup4\n      dup4\n        /* \"KryptUPI.sol\":3353:3378  upiToAddress[receiverUPI] */\n      mload(0x40)\n      tag_47\n      swap3\n      swap2\n      swap1\n      tag_48\n      jump\t// in\n    tag_47:\n      swap1\n      dup2\n      mstore\n      mload(0x40)\n      swap1\n      dup2\n      swap1\n      sub\n      0x20\n      add\n      swap1\n      keccak256\n      sload\n      sub(shl(0xa0, 0x01), 0x01)\n      and\n      swap1\n      pop\n        /* \"KryptUPI.sol\":3395:3417  receiver != address(0) */\n      dup1\n      iszero\n        /* \"KryptUPI.sol\":3391:3741  if (receiver != address(0)) {... */\n      tag_49\n      jumpi\n        /* \"KryptUPI.sol\":3435:3444  bool sent */\n      0x00\n        /* \"KryptUPI.sol\":3450:3458  receiver */\n      dup2\n      sub(shl(0xa0, 0x01), 0x01)\n        /* \"KryptUPI.sol\":3450:3463  receiver.call */\n      and\n        /* \"KryptUPI.sol\":3471:3480  msg.value */\n      callvalue\n        /* \"KryptUPI.sol\":3450:3485  receiver.call{value: msg.value}(\"\") */\n      mload(0x40)\n      0x00\n      mload(0x40)\n      dup1\n      dup4\n      sub\n      dup2\n      dup6\n      dup8\n      gas\n      call\n      swap3\n      pop\n      pop\n      pop\n      returndatasize\n      dup1\n      0x00\n      dup2\n      eq\n      tag_54\n      jumpi\n      mload(0x40)\n      swap2\n      pop\n      and(add(returndatasize, 0x3f), not(0x1f))\n      dup3\n      add\n      0x40\n      mstore\n      returndatasize\n      dup3\n      mstore\n      returndatasize\n      0x00\n      0x20\n      dup5\n      add\n      returndatacopy\n      jump(tag_53)\n    tag_54:\n      0x60\n      swap2\n      pop\n    tag_53:\n      pop\n        /* \"KryptUPI.sol\":3434:3485  (bool sent, ) = receiver.call{value: msg.value}(\"\") */\n      pop\n      swap1\n      pop\n        /* \"KryptUPI.sol\":3505:3509  sent */\n      dup1\n        /* \"KryptUPI.sol\":3500:3534  if (!sent) revert TransferFailed() */\n      tag_55\n      jumpi\n        /* \"KryptUPI.sol\":3518:3534  TransferFailed() */\n      mload(0x40)\n      shl(0xe3, 0x12171d83)\n      dup2\n      mstore\n      0x04\n      add\n      mload(0x40)\n      dup1\n      swap2\n      sub\n      swap1\n      revert\n        /* \"KryptUPI.sol\":3500:3534  if (!sent) revert TransferFailed() */\n    tag_55:\n        /* \"KryptUPI.sol\":3582:3590  receiver */\n      dup2\n      sub(shl(0xa0, 0x01), 0x01)\n        /* \"KryptUPI.sol\":3554:3627  PaymentExecuted(msg.sender, receiver, receiverUPI, address(0), msg.value) */\n      and\n        /* \"KryptUPI.sol\":3570:3580  msg.sender */\n      caller\n      sub(shl(0xa0, 0x01), 0x01)\n        /* \"KryptUPI.sol\":3554:3627  PaymentExecuted(msg.sender, receiver, receiverUPI, address(0), msg.value) */\n      and\n      0x7a502eaddf6de613898d28b00ba86919cbe3fbc5c467339da0253f1dccfbe30e\n        /* \"KryptUPI.sol\":3592:3603  receiverUPI */\n      dup7\n      dup7\n        /* \"KryptUPI.sol\":3613:3614  0 */\n      0x00\n        /* \"KryptUPI.sol\":3617:3626  msg.value */\n      callvalue\n        /* \"KryptUPI.sol\":3554:3627  PaymentExecuted(msg.sender, receiver, receiverUPI, address(0), msg.value) */\n      mload(0x40)\n      tag_56\n      swap5\n      swap4\n      swap3\n      swap2\n      swap1\n      tag_57\n      jump\t// in\n    tag_56:\n      mload(0x40)\n      dup1\n      swap2\n      sub\n      swap1\n      log3\n        /* \"KryptUPI.sol\":3419:3639  {... */\n      pop\n        /* \"KryptUPI.sol\":3262:3748  {... */\n      pop\n        /* \"KryptUPI.sol\":3192:3748  function sendPaymentETH(string calldata receiverUPI) external payable {... */\n      pop\n      pop\n      jump\t// out\n        /* \"KryptUPI.sol\":3391:3741  if (receiver != address(0)) {... */\n    tag_49:\n        /* \"KryptUPI.sol\":3694:3705  receiverUPI */\n      dup3\n      dup3\n        /* \"KryptUPI.sol\":3665:3729  PaymentRequested(msg.sender, receiverUPI, address(0), msg.value) */\n      mload(0x40)\n      tag_59\n      swap3\n      swap2\n      swap1\n      tag_48\n      jump\t// in\n    tag_59:\n      0x40\n      dup1\n      mload\n      swap2\n      dup3\n      swap1\n      sub\n      dup3\n      keccak256\n        /* \"KryptUPI.sol\":3715:3716  0 */\n      0x00\n        /* \"#utility.yul\":4115:4189   */\n      dup4\n      mstore\n        /* \"KryptUPI.sol\":3719:3728  msg.value */\n      callvalue\n        /* \"#utility.yul\":4220:4222   */\n      0x20\n        /* \"#utility.yul\":4205:4223   */\n      dup5\n      add\n        /* \"#utility.yul\":4198:4232   */\n      mstore\n        /* \"KryptUPI.sol\":3665:3729  PaymentRequested(msg.sender, receiverUPI, address(0), msg.value) */\n      swap2\n        /* \"KryptUPI.sol\":3682:3692  msg.sender */\n      caller\n      swap2\n        /* \"KryptUPI.sol\":3665:3729  PaymentRequested(msg.sender, receiverUPI, address(0), msg.value) */\n      0x43bc5d5274ed0caf87e36ff96a38cec4bbb40322abc8c0e1d2787a802100b2bb\n      swap2\n        /* \"#utility.yul\":4088:4106   */\n      add\n        /* \"KryptUPI.sol\":3665:3729  PaymentRequested(msg.sender, receiverUPI, address(0), msg.value) */\n      mload(0x40)\n      dup1\n      swap2\n      sub\n      swap1\n      log3\n        /* \"KryptUPI.sol\":3391:3741  if (receiver != address(0)) {... */\n    tag_58:\n        /* \"KryptUPI.sol\":3262:3748  {... */\n      pop\n        /* \"KryptUPI.sol\":3192:3748  function sendPaymentETH(string calldata receiverUPI) external payable {... */\n      pop\n      pop\n      jump\t// out\n        /* \"KryptUPI.sol\":716:762  mapping(address => string) public addressToUPI */\n    tag_18:\n      0x00\n      0x20\n      dup2\n      swap1\n      mstore\n      swap1\n      dup2\n      mstore\n      0x40\n      swap1\n      keccak256\n      dup1\n      sload\n      tag_62\n      swap1\n      tag_63\n      jump\t// in\n    tag_62:\n      dup1\n      0x1f\n      add\n      0x20\n      dup1\n      swap2\n      div\n      mul\n      0x20\n      add\n      mload(0x40)\n      swap1\n      dup2\n      add\n      0x40\n      mstore\n      dup1\n      swap3\n      swap2\n      swap1\n      dup2\n      dup2\n      mstore\n      0x20\n      add\n      dup3\n      dup1\n      sload\n      tag_64\n      swap1\n      tag_63\n      jump\t// in\n    tag_64:\n      dup1\n      iszero\n      tag_65\n      jumpi\n      dup1\n      0x1f\n      lt\n      tag_66\n      jumpi\n      0x0100\n      dup1\n      dup4\n      sload\n      div\n      mul\n      dup4\n      mstore\n      swap2\n      0x20\n      add\n      swap2\n      jump(tag_65)\n    tag_66:\n      dup3\n      add\n      swap2\n      swap1\n      0x00\n      mstore\n      keccak256(0x00, 0x20)\n      swap1\n    tag_67:\n      dup2\n      sload\n      dup2\n      mstore\n      swap1\n      0x01\n      add\n      swap1\n      0x20\n      add\n      dup1\n      dup4\n      gt\n      tag_67\n      jumpi\n      dup3\n      swap1\n      sub\n      0x1f\n      and\n      dup3\n      add\n      swap2\n    tag_65:\n      pop\n      pop\n      pop\n      pop\n      pop\n      dup2\n      jump\t// out\n        /* \"KryptUPI.sol\":1103:1772  function registerUPI(string calldata upi) external {... */\n    tag_24:\n        /* \"KryptUPI.sol\":1165:1180  bytes memory ub */\n      0x00\n        /* \"KryptUPI.sol\":1189:1192  upi */\n      dup3\n      dup3\n        /* \"KryptUPI.sol\":1165:1193  bytes memory ub = bytes(upi) */\n      dup1\n      dup1\n      0x1f\n      add\n      0x20\n      dup1\n      swap2\n      div\n      mul\n      0x20\n      add\n      mload(0x40)\n      swap1\n      dup2\n      add\n      0x40\n      mstore\n      dup1\n      swap4\n      swap3\n      swap2\n      swap1\n      dup2\n      dup2\n      mstore\n      0x20\n      add\n      dup4\n      dup4\n      dup1\n      dup3\n      dup5\n      calldatacopy\n      0x00\n      swap3\n      add\n      swap2\n      swap1\n      swap2\n      mstore\n      pop\n      pop\n        /* \"KryptUPI.sol\":1212:1221  ub.length */\n      dup3\n      mload\n        /* \"KryptUPI.sol\":1165:1193  bytes memory ub = bytes(upi) */\n      swap3\n      swap4\n      pop\n      pop\n      pop\n        /* \"KryptUPI.sol\":1204:1249  require(ub.length > 0, \"UPI cannot be empty\") */\n      tag_69\n      jumpi\n      mload(0x40)\n      shl(0xe5, 0x461bcd)\n      dup2\n      mstore\n        /* \"#utility.yul\":4830:4832   */\n      0x20\n        /* \"KryptUPI.sol\":1204:1249  require(ub.length > 0, \"UPI cannot be empty\") */\n      0x04\n      dup3\n      add\n        /* \"#utility.yul\":4812:4833   */\n      mstore\n        /* \"#utility.yul\":4869:4871   */\n      0x13\n        /* \"#utility.yul\":4849:4867   */\n      0x24\n      dup3\n      add\n        /* \"#utility.yul\":4842:4872   */\n      mstore\n        /* \"#utility.yul\":4908:4929   */\n      0x5550492063616e6e6f7420626520656d70747900000000000000000000000000\n        /* \"#utility.yul\":4888:4906   */\n      0x44\n      dup3\n      add\n        /* \"#utility.yul\":4881:4930   */\n      mstore\n        /* \"#utility.yul\":4947:4965   */\n      0x64\n      add\n        /* \"KryptUPI.sol\":1204:1249  require(ub.length > 0, \"UPI cannot be empty\") */\n      tag_45\n        /* \"#utility.yul\":4628:4971   */\n      jump\n        /* \"KryptUPI.sol\":1204:1249  require(ub.length > 0, \"UPI cannot be empty\") */\n    tag_69:\n        /* \"KryptUPI.sol\":1262:1278  address existing */\n      0x00\n        /* \"KryptUPI.sol\":1281:1293  upiToAddress */\n      0x01\n        /* \"KryptUPI.sol\":1294:1297  upi */\n      dup5\n      dup5\n        /* \"KryptUPI.sol\":1281:1298  upiToAddress[upi] */\n      mload(0x40)\n      tag_72\n      swap3\n      swap2\n      swap1\n      tag_48\n      jump\t// in\n    tag_72:\n      swap1\n      dup2\n      mstore\n      mload(0x40)\n      swap1\n      dup2\n      swap1\n      sub\n      0x20\n      add\n      swap1\n      keccak256\n      sload\n      sub(shl(0xa0, 0x01), 0x01)\n      and\n      swap1\n      pop\n        /* \"KryptUPI.sol\":1313:1335  existing != address(0) */\n      dup1\n      iszero\n      dup1\n      iszero\n      swap1\n        /* \"KryptUPI.sol\":1313:1361  existing != address(0) && existing != msg.sender */\n      tag_73\n      jumpi\n      pop\n      sub(shl(0xa0, 0x01), 0x01)\n        /* \"KryptUPI.sol\":1339:1361  existing != msg.sender */\n      dup2\n      and\n        /* \"KryptUPI.sol\":1351:1361  msg.sender */\n      caller\n        /* \"KryptUPI.sol\":1339:1361  existing != msg.sender */\n      eq\n      iszero\n        /* \"KryptUPI.sol\":1313:1361  existing != address(0) && existing != msg.sender */\n    tag_73:\n        /* \"KryptUPI.sol\":1309:1422  if (existing != address(0) && existing != msg.sender) {... */\n      iszero\n      tag_74\n      jumpi\n        /* \"KryptUPI.sol\":1406:1409  upi */\n      dup4\n      dup4\n        /* \"KryptUPI.sol\":1385:1410  UPIAlreadyRegistered(upi) */\n      mload(0x40)\n      shl(0xe0, 0x48e30e19)\n      dup2\n      mstore\n      0x04\n      add\n      tag_45\n      swap3\n      swap2\n      swap1\n      tag_76\n      jump\t// in\n        /* \"KryptUPI.sol\":1309:1422  if (existing != address(0) && existing != msg.sender) {... */\n    tag_74:\n        /* \"KryptUPI.sol\":1471:1481  msg.sender */\n      caller\n        /* \"KryptUPI.sol\":1434:1455  string storage oldUPI */\n      0x00\n        /* \"KryptUPI.sol\":1458:1482  addressToUPI[msg.sender] */\n      swap1\n      dup2\n      mstore\n      0x20\n      dup2\n      swap1\n      mstore\n      0x40\n      swap1\n      keccak256\n        /* \"KryptUPI.sol\":1497:1517  bytes(oldUPI).length */\n      dup1\n      sload\n        /* \"KryptUPI.sol\":1458:1482  addressToUPI[msg.sender] */\n      dup2\n      swap1\n        /* \"KryptUPI.sol\":1497:1517  bytes(oldUPI).length */\n      tag_77\n      swap1\n      tag_63\n      jump\t// in\n    tag_77:\n        /* \"KryptUPI.sol\":1497:1522  bytes(oldUPI).length != 0 */\n      iszero\n      swap1\n      pop\n        /* \"KryptUPI.sol\":1493:1633  if (bytes(oldUPI).length != 0) {... */\n      tag_78\n      jumpi\n        /* \"KryptUPI.sol\":1546:1558  upiToAddress */\n      0x01\n        /* \"KryptUPI.sol\":1559:1565  oldUPI */\n      dup2\n        /* \"KryptUPI.sol\":1546:1566  upiToAddress[oldUPI] */\n      mload(0x40)\n      tag_79\n      swap2\n      swap1\n      tag_80\n      jump\t// in\n    tag_79:\n      swap1\n      dup2\n      mstore\n      mload(0x40)\n      swap1\n      dup2\n      swap1\n      sub\n      0x20\n      add\n      dup2\n      keccak256\n        /* \"KryptUPI.sol\":1539:1566  delete upiToAddress[oldUPI] */\n      dup1\n      sload\n      not(0xffffffffffffffffffffffffffffffffffffffff)\n      and\n      swap1\n      sstore\n        /* \"KryptUPI.sol\":1602:1612  msg.sender */\n      caller\n      swap1\n        /* \"KryptUPI.sol\":1586:1621  UPIUnregistered(msg.sender, oldUPI) */\n      0x609932e3f0ab81708ad57cccf85d188e591c96af1d42405da49bac706f09b672\n      swap1\n      tag_81\n      swap1\n        /* \"KryptUPI.sol\":1614:1620  oldUPI */\n      dup5\n      swap1\n        /* \"KryptUPI.sol\":1586:1621  UPIUnregistered(msg.sender, oldUPI) */\n      tag_82\n      jump\t// in\n    tag_81:\n      mload(0x40)\n      dup1\n      swap2\n      sub\n      swap1\n      log2\n        /* \"KryptUPI.sol\":1493:1633  if (bytes(oldUPI).length != 0) {... */\n    tag_78:\n        /* \"KryptUPI.sol\":1658:1668  msg.sender */\n      caller\n        /* \"KryptUPI.sol\":1645:1657  addressToUPI */\n      0x00\n        /* \"KryptUPI.sol\":1645:1669  addressToUPI[msg.sender] */\n      swap1\n      dup2\n      mstore\n      0x20\n      dup2\n      swap1\n      mstore\n      0x40\n      swap1\n      keccak256\n        /* \"KryptUPI.sol\":1645:1675  addressToUPI[msg.sender] = upi */\n      tag_83\n        /* \"KryptUPI.sol\":1672:1675  upi */\n      dup6\n      dup8\n        /* \"KryptUPI.sol\":1645:1669  addressToUPI[msg.sender] */\n      dup4\n        /* \"KryptUPI.sol\":1645:1675  addressToUPI[msg.sender] = upi */\n      tag_84\n      jump\t// in\n    tag_83:\n      pop\n        /* \"KryptUPI.sol\":1706:1716  msg.sender */\n      caller\n        /* \"KryptUPI.sol\":1686:1698  upiToAddress */\n      0x01\n        /* \"KryptUPI.sol\":1699:1702  upi */\n      dup7\n      dup7\n        /* \"KryptUPI.sol\":1686:1703  upiToAddress[upi] */\n      mload(0x40)\n      tag_85\n      swap3\n      swap2\n      swap1\n      tag_48\n      jump\t// in\n    tag_85:\n      swap1\n      dup2\n      mstore\n      mload(0x40)\n      swap1\n      dup2\n      swap1\n      sub\n      0x20\n      add\n      dup2\n      keccak256\n        /* \"KryptUPI.sol\":1686:1716  upiToAddress[upi] = msg.sender */\n      dup1\n      sload\n      sub(shl(0xa0, 0x01), 0x01)\n      swap4\n      swap1\n      swap4\n      and\n      not(0xffffffffffffffffffffffffffffffffffffffff)\n      swap1\n      swap4\n      and\n      swap3\n      swap1\n      swap3\n      or\n      swap1\n      swap2\n      sstore\n        /* \"KryptUPI.sol\":1748:1758  msg.sender */\n      caller\n      swap1\n        /* \"KryptUPI.sol\":1734:1764  UPIRegistered(msg.sender, upi) */\n      0xb6da3bad99d05b0c3427c43d1b921db9009568d188763bbd0ecef66a58a339f4\n      swap1\n      tag_86\n      swap1\n        /* \"KryptUPI.sol\":1760:1763  upi */\n      dup9\n      swap1\n      dup9\n      swap1\n        /* \"KryptUPI.sol\":1734:1764  UPIRegistered(msg.sender, upi) */\n      tag_76\n      jump\t// in\n    tag_86:\n      mload(0x40)\n      dup1\n      swap2\n      sub\n      swap1\n      log2\n        /* \"KryptUPI.sol\":1154:1772  {... */\n      pop\n      pop\n      pop\n        /* \"KryptUPI.sol\":1103:1772  function registerUPI(string calldata upi) external {... */\n      pop\n      pop\n      jump\t// out\n        /* \"KryptUPI.sol\":2255:3140  function sendPayment(address token, string calldata receiverUPI, uint256 amount) external {... */\n    tag_29:\n      sub(shl(0xa0, 0x01), 0x01)\n        /* \"KryptUPI.sol\":2360:2379  token == address(0) */\n      dup5\n      and\n        /* \"KryptUPI.sol\":2356:2401  if (token == address(0)) revert ZeroAddress() */\n      tag_88\n      jumpi\n        /* \"KryptUPI.sol\":2388:2401  ZeroAddress() */\n      mload(0x40)\n      shl(0xe0, 0xd92e233d)\n      dup2\n      mstore\n      0x04\n      add\n      mload(0x40)\n      dup1\n      swap2\n      sub\n      swap1\n      revert\n        /* \"KryptUPI.sol\":2356:2401  if (token == address(0)) revert ZeroAddress() */\n    tag_88:\n        /* \"KryptUPI.sol\":2429:2430  0 */\n      0x00\n        /* \"KryptUPI.sol\":2420:2426  amount */\n      dup2\n        /* \"KryptUPI.sol\":2420:2430  amount > 0 */\n      gt\n        /* \"KryptUPI.sol\":2412:2453  require(amount > 0, \"amount must be > 0\") */\n      tag_89\n      jumpi\n      mload(0x40)\n      shl(0xe5, 0x461bcd)\n      dup2\n      mstore\n        /* \"#utility.yul\":9416:9418   */\n      0x20\n        /* \"KryptUPI.sol\":2412:2453  require(amount > 0, \"amount must be > 0\") */\n      0x04\n      dup3\n      add\n        /* \"#utility.yul\":9398:9419   */\n      mstore\n        /* \"#utility.yul\":9455:9457   */\n      0x12\n        /* \"#utility.yul\":9435:9453   */\n      0x24\n      dup3\n      add\n        /* \"#utility.yul\":9428:9458   */\n      mstore\n        /* \"#utility.yul\":9494:9514   */\n      0x616d6f756e74206d757374206265203e20300000000000000000000000000000\n        /* \"#utility.yul\":9474:9492   */\n      0x44\n      dup3\n      add\n        /* \"#utility.yul\":9467:9515   */\n      mstore\n        /* \"#utility.yul\":9532:9550   */\n      0x64\n      add\n        /* \"KryptUPI.sol\":2412:2453  require(amount > 0, \"amount must be > 0\") */\n      tag_45\n        /* \"#utility.yul\":9214:9556   */\n      jump\n        /* \"KryptUPI.sol\":2412:2453  require(amount > 0, \"amount must be > 0\") */\n    tag_89:\n        /* \"KryptUPI.sol\":2466:2482  address receiver */\n      0x00\n        /* \"KryptUPI.sol\":2485:2497  upiToAddress */\n      0x01\n        /* \"KryptUPI.sol\":2498:2509  receiverUPI */\n      dup5\n      dup5\n        /* \"KryptUPI.sol\":2485:2510  upiToAddress[receiverUPI] */\n      mload(0x40)\n      tag_92\n      swap3\n      swap2\n      swap1\n      tag_48\n      jump\t// in\n    tag_92:\n      swap1\n      dup2\n      mstore\n      mload(0x40)\n      swap1\n      dup2\n      swap1\n      sub\n      0x20\n      add\n      swap1\n      keccak256\n      sload\n      sub(shl(0xa0, 0x01), 0x01)\n      and\n      swap1\n      pop\n        /* \"KryptUPI.sol\":2527:2549  receiver != address(0) */\n      dup1\n      iszero\n        /* \"KryptUPI.sol\":2523:3133  if (receiver != address(0)) {... */\n      tag_93\n      jumpi\n        /* \"KryptUPI.sol\":2707:2789  abi.encodeWithSelector(IERC20.transferFrom.selector, msg.sender, receiver, amount) */\n      0x40\n      dup1\n      mload\n        /* \"KryptUPI.sol\":2760:2770  msg.sender */\n      caller\n        /* \"KryptUPI.sol\":2707:2789  abi.encodeWithSelector(IERC20.transferFrom.selector, msg.sender, receiver, amount) */\n      0x24\n      dup3\n      add\n        /* \"#utility.yul\":9824:9858   */\n      mstore\n      sub(shl(0xa0, 0x01), 0x01)\n        /* \"#utility.yul\":9894:9909   */\n      dup4\n      dup2\n      and\n        /* \"#utility.yul\":9874:9892   */\n      0x44\n      dup4\n      add\n        /* \"#utility.yul\":9867:9910   */\n      mstore\n        /* \"#utility.yul\":9926:9944   */\n      0x64\n      dup1\n      dup4\n      add\n        /* \"#utility.yul\":9919:9953   */\n      dup7\n      swap1\n      mstore\n        /* \"KryptUPI.sol\":2707:2789  abi.encodeWithSelector(IERC20.transferFrom.selector, msg.sender, receiver, amount) */\n      dup4\n      mload\n      dup1\n      dup5\n      sub\n      swap1\n      swap2\n      add\n      dup2\n      mstore\n        /* \"#utility.yul\":9736:9754   */\n      0x84\n      swap1\n      swap3\n      add\n        /* \"KryptUPI.sol\":2707:2789  abi.encodeWithSelector(IERC20.transferFrom.selector, msg.sender, receiver, amount) */\n      dup4\n      mstore\n      0x20\n      dup3\n      add\n      dup1\n      mload\n      0xffffffffffffffffffffffffffffffffffffffffffffffffffffffff\n      and\n      shl(0xe0, 0x23b872dd)\n      or\n      swap1\n      mstore\n        /* \"KryptUPI.sol\":2678:2804  token.call(... */\n      swap2\n      mload\n      0x00\n      swap3\n      dup4\n      swap3\n        /* \"KryptUPI.sol\":2678:2688  token.call */\n      swap1\n      dup10\n      and\n      swap2\n        /* \"KryptUPI.sol\":2678:2804  token.call(... */\n      tag_96\n      swap2\n        /* \"KryptUPI.sol\":2707:2789  abi.encodeWithSelector(IERC20.transferFrom.selector, msg.sender, receiver, amount) */\n      swap1\n        /* \"KryptUPI.sol\":2678:2804  token.call(... */\n      tag_97\n      jump\t// in\n    tag_96:\n      0x00\n      mload(0x40)\n      dup1\n      dup4\n      sub\n      dup2\n      0x00\n      dup7\n      gas\n      call\n      swap2\n      pop\n      pop\n      returndatasize\n      dup1\n      0x00\n      dup2\n      eq\n      tag_100\n      jumpi\n      mload(0x40)\n      swap2\n      pop\n      and(add(returndatasize, 0x3f), not(0x1f))\n      dup3\n      add\n      0x40\n      mstore\n      returndatasize\n      dup3\n      mstore\n      returndatasize\n      0x00\n      0x20\n      dup5\n      add\n      returndatacopy\n      jump(tag_99)\n    tag_100:\n      0x60\n      swap2\n      pop\n    tag_99:\n      pop\n        /* \"KryptUPI.sol\":2642:2804  (bool success, bytes memory data) = token.call(... */\n      swap2\n      pop\n      swap2\n      pop\n        /* \"KryptUPI.sol\":2824:2831  success */\n      dup2\n        /* \"KryptUPI.sol\":2823:2831  !success */\n      iszero\n        /* \"KryptUPI.sol\":2823:2881  !success || (data.length > 0 && !abi.decode(data, (bool))) */\n      dup1\n      tag_102\n      jumpi\n      pop\n        /* \"KryptUPI.sol\":2850:2851  0 */\n      0x00\n        /* \"KryptUPI.sol\":2836:2840  data */\n      dup2\n        /* \"KryptUPI.sol\":2836:2847  data.length */\n      mload\n        /* \"KryptUPI.sol\":2836:2851  data.length > 0 */\n      gt\n        /* \"KryptUPI.sol\":2836:2880  data.length > 0 && !abi.decode(data, (bool)) */\n      dup1\n      iszero\n      tag_102\n      jumpi\n      pop\n        /* \"KryptUPI.sol\":2867:2871  data */\n      dup1\n        /* \"KryptUPI.sol\":2856:2880  abi.decode(data, (bool)) */\n      dup1\n      0x20\n      add\n      swap1\n      mload\n      dup2\n      add\n      swap1\n      tag_103\n      swap2\n      swap1\n      tag_104\n      jump\t// in\n    tag_103:\n        /* \"KryptUPI.sol\":2855:2880  !abi.decode(data, (bool)) */\n      iszero\n        /* \"KryptUPI.sol\":2836:2880  data.length > 0 && !abi.decode(data, (bool)) */\n    tag_102:\n        /* \"KryptUPI.sol\":2819:2941  if (!success || (data.length > 0 && !abi.decode(data, (bool)))) {... */\n      iszero\n      tag_105\n      jumpi\n        /* \"KryptUPI.sol\":2909:2925  TransferFailed() */\n      mload(0x40)\n      shl(0xe3, 0x12171d83)\n      dup2\n      mstore\n      0x04\n      add\n      mload(0x40)\n      dup1\n      swap2\n      sub\n      swap1\n      revert\n        /* \"KryptUPI.sol\":2819:2941  if (!success || (data.length > 0 && !abi.decode(data, (bool)))) {... */\n    tag_105:\n        /* \"KryptUPI.sol\":2990:2998  receiver */\n      dup3\n      sub(shl(0xa0, 0x01), 0x01)\n        /* \"KryptUPI.sol\":2962:3027  PaymentExecuted(msg.sender, receiver, receiverUPI, token, amount) */\n      and\n        /* \"KryptUPI.sol\":2978:2988  msg.sender */\n      caller\n      sub(shl(0xa0, 0x01), 0x01)\n        /* \"KryptUPI.sol\":2962:3027  PaymentExecuted(msg.sender, receiver, receiverUPI, token, amount) */\n      and\n      0x7a502eaddf6de613898d28b00ba86919cbe3fbc5c467339da0253f1dccfbe30e\n        /* \"KryptUPI.sol\":3000:3011  receiverUPI */\n      dup9\n      dup9\n        /* \"KryptUPI.sol\":3013:3018  token */\n      dup12\n        /* \"KryptUPI.sol\":3020:3026  amount */\n      dup10\n        /* \"KryptUPI.sol\":2962:3027  PaymentExecuted(msg.sender, receiver, receiverUPI, token, amount) */\n      mload(0x40)\n      tag_106\n      swap5\n      swap4\n      swap3\n      swap2\n      swap1\n      tag_57\n      jump\t// in\n    tag_106:\n      mload(0x40)\n      dup1\n      swap2\n      sub\n      swap1\n      log3\n        /* \"KryptUPI.sol\":2551:3039  {... */\n      pop\n      pop\n        /* \"KryptUPI.sol\":2523:3133  if (receiver != address(0)) {... */\n      jump(tag_107)\n    tag_93:\n        /* \"KryptUPI.sol\":3094:3105  receiverUPI */\n      dup4\n      dup4\n        /* \"KryptUPI.sol\":3065:3121  PaymentRequested(msg.sender, receiverUPI, token, amount) */\n      mload(0x40)\n      tag_108\n      swap3\n      swap2\n      swap1\n      tag_48\n      jump\t// in\n    tag_108:\n      0x40\n      dup1\n      mload\n      swap2\n      dup3\n      swap1\n      sub\n      dup3\n      keccak256\n      sub(shl(0xa0, 0x01), 0x01)\n        /* \"#utility.yul\":4133:4188   */\n      dup9\n      and\n        /* \"#utility.yul\":4115:4189   */\n      dup4\n      mstore\n        /* \"#utility.yul\":4220:4222   */\n      0x20\n        /* \"#utility.yul\":4205:4223   */\n      dup4\n      add\n        /* \"#utility.yul\":4198:4232   */\n      dup6\n      swap1\n      mstore\n        /* \"KryptUPI.sol\":3065:3121  PaymentRequested(msg.sender, receiverUPI, token, amount) */\n      swap2\n        /* \"KryptUPI.sol\":3082:3092  msg.sender */\n      caller\n      swap2\n        /* \"KryptUPI.sol\":3065:3121  PaymentRequested(msg.sender, receiverUPI, token, amount) */\n      0x43bc5d5274ed0caf87e36ff96a38cec4bbb40322abc8c0e1d2787a802100b2bb\n      swap2\n        /* \"#utility.yul\":4088:4106   */\n      add\n        /* \"KryptUPI.sol\":3065:3121  PaymentRequested(msg.sender, receiverUPI, token, amount) */\n      mload(0x40)\n      dup1\n      swap2\n      sub\n      swap1\n      log3\n        /* \"KryptUPI.sol\":2523:3133  if (receiver != address(0)) {... */\n    tag_107:\n        /* \"KryptUPI.sol\":2345:3140  {... */\n      pop\n        /* \"KryptUPI.sol\":2255:3140  function sendPayment(address token, string calldata receiverUPI, uint256 amount) external {... */\n      pop\n      pop\n      pop\n      pop\n      jump\t// out\n        /* \"KryptUPI.sol\":2059:2179  function getWalletByUPI(string calldata upi) external view returns (address) {... */\n    tag_33:\n        /* \"KryptUPI.sol\":2127:2134  address */\n      0x00\n        /* \"KryptUPI.sol\":2154:2166  upiToAddress */\n      0x01\n        /* \"KryptUPI.sol\":2167:2170  upi */\n      dup4\n      dup4\n        /* \"KryptUPI.sol\":2154:2171  upiToAddress[upi] */\n      mload(0x40)\n      tag_111\n      swap3\n      swap2\n      swap1\n      tag_48\n      jump\t// in\n    tag_111:\n      swap1\n      dup2\n      mstore\n      mload(0x40)\n      swap1\n      dup2\n      swap1\n      sub\n      0x20\n      add\n      swap1\n      keccak256\n      sload\n      sub(shl(0xa0, 0x01), 0x01)\n      and\n      swap1\n      pop\n        /* \"KryptUPI.sol\":2059:2179  function getWalletByUPI(string calldata upi) external view returns (address) {... */\n      swap3\n      swap2\n      pop\n      pop\n      jump\t// out\n        /* \"KryptUPI.sol\":3795:3900  function myUPI() external view returns (string memory) {... */\n    tag_38:\n        /* \"KryptUPI.sol\":3881:3891  msg.sender */\n      caller\n        /* \"KryptUPI.sol\":3868:3880  addressToUPI */\n      0x00\n        /* \"KryptUPI.sol\":3868:3892  addressToUPI[msg.sender] */\n      swap1\n      dup2\n      mstore\n      0x20\n      dup2\n      swap1\n      mstore\n      0x40\n      swap1\n      keccak256\n        /* \"KryptUPI.sol\":3861:3892  return addressToUPI[msg.sender] */\n      dup1\n      sload\n        /* \"KryptUPI.sol\":3835:3848  string memory */\n      0x60\n      swap2\n        /* \"KryptUPI.sol\":3868:3892  addressToUPI[msg.sender] */\n      swap1\n        /* \"KryptUPI.sol\":3861:3892  return addressToUPI[msg.sender] */\n      tag_113\n      swap1\n      tag_63\n      jump\t// in\n    tag_113:\n      dup1\n      0x1f\n      add\n      0x20\n      dup1\n      swap2\n      div\n      mul\n      0x20\n      add\n      mload(0x40)\n      swap1\n      dup2\n      add\n      0x40\n      mstore\n      dup1\n      swap3\n      swap2\n      swap1\n      dup2\n      dup2\n      mstore\n      0x20\n      add\n      dup3\n      dup1\n      sload\n      tag_114\n      swap1\n      tag_63\n      jump\t// in\n    tag_114:\n      dup1\n      iszero\n      tag_115\n      jumpi\n      dup1\n      0x1f\n      lt\n      tag_116\n      jumpi\n      0x0100\n      dup1\n      dup4\n      sload\n      div\n      mul\n      dup4\n      mstore\n      swap2\n      0x20\n      add\n      swap2\n      jump(tag_115)\n    tag_116:\n      dup3\n      add\n      swap2\n      swap1\n      0x00\n      mstore\n      keccak256(0x00, 0x20)\n      swap1\n    tag_117:\n      dup2\n      sload\n      dup2\n      mstore\n      swap1\n      0x01\n      add\n      swap1\n      0x20\n      add\n      dup1\n      dup4\n      gt\n      tag_117\n      jumpi\n      dup3\n      swap1\n      sub\n      0x1f\n      and\n      dup3\n      add\n      swap2\n    tag_115:\n      pop\n      pop\n      pop\n      pop\n      pop\n      swap1\n      pop\n        /* \"KryptUPI.sol\":3795:3900  function myUPI() external view returns (string memory) {... */\n      swap1\n      jump\t// out\n        /* \"KryptUPI.sol\":1780:2051  function unregisterUPI() external {... */\n    tag_42:\n        /* \"KryptUPI.sol\":1857:1867  msg.sender */\n      caller\n        /* \"KryptUPI.sol\":1825:1841  string storage u */\n      0x00\n        /* \"KryptUPI.sol\":1844:1868  addressToUPI[msg.sender] */\n      swap1\n      dup2\n      mstore\n      0x20\n      dup2\n      swap1\n      mstore\n      0x40\n      swap1\n      keccak256\n        /* \"KryptUPI.sol\":1887:1902  bytes(u).length */\n      dup1\n      sload\n        /* \"KryptUPI.sol\":1844:1868  addressToUPI[msg.sender] */\n      dup2\n      swap1\n        /* \"KryptUPI.sol\":1887:1902  bytes(u).length */\n      tag_119\n      swap1\n      tag_63\n      jump\t// in\n    tag_119:\n      swap1\n      pop\n        /* \"KryptUPI.sol\":1906:1907  0 */\n      0x00\n        /* \"KryptUPI.sol\":1887:1907  bytes(u).length != 0 */\n      sub\n        /* \"KryptUPI.sol\":1879:1922  require(bytes(u).length != 0, \"no upi set\") */\n      tag_120\n      jumpi\n      mload(0x40)\n      shl(0xe5, 0x461bcd)\n      dup2\n      mstore\n        /* \"#utility.yul\":10754:10756   */\n      0x20\n        /* \"KryptUPI.sol\":1879:1922  require(bytes(u).length != 0, \"no upi set\") */\n      0x04\n      dup3\n      add\n        /* \"#utility.yul\":10736:10757   */\n      mstore\n        /* \"#utility.yul\":10793:10795   */\n      0x0a\n        /* \"#utility.yul\":10773:10791   */\n      0x24\n      dup3\n      add\n        /* \"#utility.yul\":10766:10796   */\n      mstore\n        /* \"#utility.yul\":10832:10844   */\n      0x6e6f207570692073657400000000000000000000000000000000000000000000\n        /* \"#utility.yul\":10812:10830   */\n      0x44\n      dup3\n      add\n        /* \"#utility.yul\":10805:10845   */\n      mstore\n        /* \"#utility.yul\":10862:10880   */\n      0x64\n      add\n        /* \"KryptUPI.sol\":1879:1922  require(bytes(u).length != 0, \"no upi set\") */\n      tag_45\n        /* \"#utility.yul\":10552:10886   */\n      jump\n        /* \"KryptUPI.sol\":1879:1922  require(bytes(u).length != 0, \"no upi set\") */\n    tag_120:\n        /* \"KryptUPI.sol\":1940:1952  upiToAddress */\n      0x01\n        /* \"KryptUPI.sol\":1953:1954  u */\n      dup2\n        /* \"KryptUPI.sol\":1940:1955  upiToAddress[u] */\n      mload(0x40)\n      tag_123\n      swap2\n      swap1\n      tag_80\n      jump\t// in\n    tag_123:\n      swap1\n      dup2\n      mstore\n      0x40\n      dup1\n      mload\n      0x20\n      swap3\n      dup2\n      swap1\n      sub\n      dup4\n      add\n      swap1\n      keccak256\n        /* \"KryptUPI.sol\":1933:1955  delete upiToAddress[u] */\n      dup1\n      sload\n      not(0xffffffffffffffffffffffffffffffffffffffff)\n      and\n      swap1\n      sstore\n        /* \"KryptUPI.sol\":1986:1996  msg.sender */\n      caller\n      0x00\n        /* \"KryptUPI.sol\":1973:1997  addressToUPI[msg.sender] */\n      swap1\n      dup2\n      mstore\n      swap2\n      dup3\n      swap1\n      mstore\n      dup2\n      keccak256\n        /* \"KryptUPI.sol\":1966:1997  delete addressToUPI[msg.sender] */\n      tag_124\n      swap2\n      tag_125\n      jump\t// in\n    tag_124:\n        /* \"KryptUPI.sol\":2029:2039  msg.sender */\n      caller\n      sub(shl(0xa0, 0x01), 0x01)\n        /* \"KryptUPI.sol\":2013:2043  UPIUnregistered(msg.sender, u) */\n      and\n      0x609932e3f0ab81708ad57cccf85d188e591c96af1d42405da49bac706f09b672\n        /* \"KryptUPI.sol\":2041:2042  u */\n      dup3\n        /* \"KryptUPI.sol\":2013:2043  UPIUnregistered(msg.sender, u) */\n      mload(0x40)\n      tag_126\n      swap2\n      swap1\n      tag_82\n      jump\t// in\n    tag_126:\n      mload(0x40)\n      dup1\n      swap2\n      sub\n      swap1\n      log2\n        /* \"KryptUPI.sol\":1814:2051  {... */\n      pop\n        /* \"KryptUPI.sol\":1780:2051  function unregisterUPI() external {... */\n      jump\t// out\n    tag_125:\n      pop\n      dup1\n      sload\n      tag_127\n      swap1\n      tag_63\n      jump\t// in\n    tag_127:\n      0x00\n      dup3\n      sstore\n      dup1\n      0x1f\n      lt\n      tag_129\n      jumpi\n      pop\n      pop\n      jump\t// out\n    tag_129:\n      0x1f\n      add\n      0x20\n      swap1\n      div\n      swap1\n      0x00\n      mstore\n      keccak256(0x00, 0x20)\n      swap1\n      dup2\n      add\n      swap1\n      tag_130\n      swap2\n      swap1\n      tag_131\n      jump\t// in\n    tag_130:\n      pop\n      jump\t// out\n    tag_131:\n    tag_132:\n      dup1\n      dup3\n      gt\n      iszero\n      tag_133\n      jumpi\n      0x00\n      dup2\n      sstore\n      0x01\n      add\n      jump(tag_132)\n    tag_133:\n      pop\n      swap1\n      jump\t// out\n        /* \"#utility.yul\":14:362   */\n    tag_134:\n        /* \"#utility.yul\":66:74   */\n      0x00\n        /* \"#utility.yul\":76:82   */\n      dup1\n        /* \"#utility.yul\":130:133   */\n      dup4\n        /* \"#utility.yul\":123:127   */\n      0x1f\n        /* \"#utility.yul\":115:121   */\n      dup5\n        /* \"#utility.yul\":111:128   */\n      add\n        /* \"#utility.yul\":107:134   */\n      slt\n        /* \"#utility.yul\":97:152   */\n      tag_143\n      jumpi\n        /* \"#utility.yul\":148:149   */\n      0x00\n        /* \"#utility.yul\":145:146   */\n      dup1\n        /* \"#utility.yul\":138:150   */\n      revert\n        /* \"#utility.yul\":97:152   */\n    tag_143:\n      pop\n        /* \"#utility.yul\":171:191   */\n      dup2\n      calldataload\n        /* \"#utility.yul\":214:232   */\n      0xffffffffffffffff\n        /* \"#utility.yul\":203:233   */\n      dup2\n      gt\n        /* \"#utility.yul\":200:250   */\n      iszero\n      tag_144\n      jumpi\n        /* \"#utility.yul\":246:247   */\n      0x00\n        /* \"#utility.yul\":243:244   */\n      dup1\n        /* \"#utility.yul\":236:248   */\n      revert\n        /* \"#utility.yul\":200:250   */\n    tag_144:\n        /* \"#utility.yul\":283:287   */\n      0x20\n        /* \"#utility.yul\":275:281   */\n      dup4\n        /* \"#utility.yul\":271:288   */\n      add\n        /* \"#utility.yul\":259:288   */\n      swap2\n      pop\n        /* \"#utility.yul\":335:338   */\n      dup4\n        /* \"#utility.yul\":328:332   */\n      0x20\n        /* \"#utility.yul\":319:325   */\n      dup3\n        /* \"#utility.yul\":311:317   */\n      dup6\n        /* \"#utility.yul\":307:326   */\n      add\n        /* \"#utility.yul\":303:333   */\n      add\n        /* \"#utility.yul\":300:339   */\n      gt\n        /* \"#utility.yul\":297:356   */\n      iszero\n      tag_145\n      jumpi\n        /* \"#utility.yul\":352:353   */\n      0x00\n        /* \"#utility.yul\":349:350   */\n      dup1\n        /* \"#utility.yul\":342:354   */\n      revert\n        /* \"#utility.yul\":297:356   */\n    tag_145:\n        /* \"#utility.yul\":14:362   */\n      swap3\n      pop\n      swap3\n      swap1\n      pop\n      jump\t// out\n        /* \"#utility.yul\":367:778   */\n    tag_12:\n        /* \"#utility.yul\":438:444   */\n      0x00\n        /* \"#utility.yul\":446:452   */\n      dup1\n        /* \"#utility.yul\":499:501   */\n      0x20\n        /* \"#utility.yul\":487:496   */\n      dup4\n        /* \"#utility.yul\":478:485   */\n      dup6\n        /* \"#utility.yul\":474:497   */\n      sub\n        /* \"#utility.yul\":470:502   */\n      slt\n        /* \"#utility.yul\":467:519   */\n      iszero\n      tag_147\n      jumpi\n        /* \"#utility.yul\":515:516   */\n      0x00\n        /* \"#utility.yul\":512:513   */\n      dup1\n        /* \"#utility.yul\":505:517   */\n      revert\n        /* \"#utility.yul\":467:519   */\n    tag_147:\n        /* \"#utility.yul\":555:564   */\n      dup3\n        /* \"#utility.yul\":542:565   */\n      calldataload\n        /* \"#utility.yul\":588:606   */\n      0xffffffffffffffff\n        /* \"#utility.yul\":580:586   */\n      dup2\n        /* \"#utility.yul\":577:607   */\n      gt\n        /* \"#utility.yul\":574:624   */\n      iszero\n      tag_148\n      jumpi\n        /* \"#utility.yul\":620:621   */\n      0x00\n        /* \"#utility.yul\":617:618   */\n      dup1\n        /* \"#utility.yul\":610:622   */\n      revert\n        /* \"#utility.yul\":574:624   */\n    tag_148:\n        /* \"#utility.yul\":659:718   */\n      tag_149\n        /* \"#utility.yul\":710:717   */\n      dup6\n        /* \"#utility.yul\":701:707   */\n      dup3\n        /* \"#utility.yul\":690:699   */\n      dup7\n        /* \"#utility.yul\":686:708   */\n      add\n        /* \"#utility.yul\":659:718   */\n      tag_134\n      jump\t// in\n    tag_149:\n        /* \"#utility.yul\":737:745   */\n      swap1\n      swap7\n        /* \"#utility.yul\":633:718   */\n      swap1\n      swap6\n      pop\n        /* \"#utility.yul\":367:778   */\n      swap4\n      pop\n      pop\n      pop\n      pop\n      jump\t// out\n        /* \"#utility.yul\":783:979   */\n    tag_135:\n        /* \"#utility.yul\":851:871   */\n      dup1\n      calldataload\n      sub(shl(0xa0, 0x01), 0x01)\n        /* \"#utility.yul\":900:954   */\n      dup2\n      and\n        /* \"#utility.yul\":890:955   */\n      dup2\n      eq\n        /* \"#utility.yul\":880:973   */\n      tag_151\n      jumpi\n        /* \"#utility.yul\":969:970   */\n      0x00\n        /* \"#utility.yul\":966:967   */\n      dup1\n        /* \"#utility.yul\":959:971   */\n      revert\n        /* \"#utility.yul\":880:973   */\n    tag_151:\n        /* \"#utility.yul\":783:979   */\n      swap2\n      swap1\n      pop\n      jump\t// out\n        /* \"#utility.yul\":984:1170   */\n    tag_17:\n        /* \"#utility.yul\":1043:1049   */\n      0x00\n        /* \"#utility.yul\":1096:1098   */\n      0x20\n        /* \"#utility.yul\":1084:1093   */\n      dup3\n        /* \"#utility.yul\":1075:1082   */\n      dup5\n        /* \"#utility.yul\":1071:1094   */\n      sub\n        /* \"#utility.yul\":1067:1099   */\n      slt\n        /* \"#utility.yul\":1064:1116   */\n      iszero\n      tag_153\n      jumpi\n        /* \"#utility.yul\":1112:1113   */\n      0x00\n        /* \"#utility.yul\":1109:1110   */\n      dup1\n        /* \"#utility.yul\":1102:1114   */\n      revert\n        /* \"#utility.yul\":1064:1116   */\n    tag_153:\n        /* \"#utility.yul\":1135:1164   */\n      tag_154\n        /* \"#utility.yul\":1154:1163   */\n      dup3\n        /* \"#utility.yul\":1135:1164   */\n      tag_135\n      jump\t// in\n    tag_154:\n        /* \"#utility.yul\":1125:1164   */\n      swap4\n        /* \"#utility.yul\":984:1170   */\n      swap3\n      pop\n      pop\n      pop\n      jump\t// out\n        /* \"#utility.yul\":1175:1593   */\n    tag_20:\n        /* \"#utility.yul\":1324:1326   */\n      0x20\n        /* \"#utility.yul\":1313:1322   */\n      dup2\n        /* \"#utility.yul\":1306:1327   */\n      mstore\n        /* \"#utility.yul\":1287:1291   */\n      0x00\n        /* \"#utility.yul\":1356:1362   */\n      dup3\n        /* \"#utility.yul\":1350:1363   */\n      mload\n        /* \"#utility.yul\":1399:1405   */\n      dup1\n        /* \"#utility.yul\":1394:1396   */\n      0x20\n        /* \"#utility.yul\":1383:1392   */\n      dup5\n        /* \"#utility.yul\":1379:1397   */\n      add\n        /* \"#utility.yul\":1372:1406   */\n      mstore\n        /* \"#utility.yul\":1458:1464   */\n      dup1\n        /* \"#utility.yul\":1453:1455   */\n      0x20\n        /* \"#utility.yul\":1445:1451   */\n      dup6\n        /* \"#utility.yul\":1441:1456   */\n      add\n        /* \"#utility.yul\":1436:1438   */\n      0x40\n        /* \"#utility.yul\":1425:1434   */\n      dup6\n        /* \"#utility.yul\":1421:1439   */\n      add\n        /* \"#utility.yul\":1415:1465   */\n      mcopy\n        /* \"#utility.yul\":1514:1515   */\n      0x00\n        /* \"#utility.yul\":1509:1511   */\n      0x40\n        /* \"#utility.yul\":1500:1506   */\n      dup3\n        /* \"#utility.yul\":1489:1498   */\n      dup6\n        /* \"#utility.yul\":1485:1507   */\n      add\n        /* \"#utility.yul\":1481:1512   */\n      add\n        /* \"#utility.yul\":1474:1516   */\n      mstore\n        /* \"#utility.yul\":1584:1586   */\n      0x40\n        /* \"#utility.yul\":1577:1579   */\n      0x1f\n        /* \"#utility.yul\":1573:1580   */\n      not\n        /* \"#utility.yul\":1568:1570   */\n      0x1f\n        /* \"#utility.yul\":1560:1566   */\n      dup4\n        /* \"#utility.yul\":1556:1571   */\n      add\n        /* \"#utility.yul\":1552:1581   */\n      and\n        /* \"#utility.yul\":1541:1550   */\n      dup5\n        /* \"#utility.yul\":1537:1582   */\n      add\n        /* \"#utility.yul\":1533:1587   */\n      add\n        /* \"#utility.yul\":1525:1587   */\n      swap2\n      pop\n      pop\n        /* \"#utility.yul\":1175:1593   */\n      swap3\n      swap2\n      pop\n      pop\n      jump\t// out\n        /* \"#utility.yul\":1598:2151   */\n    tag_28:\n        /* \"#utility.yul\":1687:1693   */\n      0x00\n        /* \"#utility.yul\":1695:1701   */\n      dup1\n        /* \"#utility.yul\":1703:1709   */\n      0x00\n        /* \"#utility.yul\":1711:1717   */\n      dup1\n        /* \"#utility.yul\":1764:1766   */\n      0x60\n        /* \"#utility.yul\":1752:1761   */\n      dup6\n        /* \"#utility.yul\":1743:1750   */\n      dup8\n        /* \"#utility.yul\":1739:1762   */\n      sub\n        /* \"#utility.yul\":1735:1767   */\n      slt\n        /* \"#utility.yul\":1732:1784   */\n      iszero\n      tag_157\n      jumpi\n        /* \"#utility.yul\":1780:1781   */\n      0x00\n        /* \"#utility.yul\":1777:1778   */\n      dup1\n        /* \"#utility.yul\":1770:1782   */\n      revert\n        /* \"#utility.yul\":1732:1784   */\n    tag_157:\n        /* \"#utility.yul\":1803:1832   */\n      tag_158\n        /* \"#utility.yul\":1822:1831   */\n      dup6\n        /* \"#utility.yul\":1803:1832   */\n      tag_135\n      jump\t// in\n    tag_158:\n        /* \"#utility.yul\":1793:1832   */\n      swap4\n      pop\n        /* \"#utility.yul\":1883:1885   */\n      0x20\n        /* \"#utility.yul\":1872:1881   */\n      dup6\n        /* \"#utility.yul\":1868:1886   */\n      add\n        /* \"#utility.yul\":1855:1887   */\n      calldataload\n        /* \"#utility.yul\":1910:1928   */\n      0xffffffffffffffff\n        /* \"#utility.yul\":1902:1908   */\n      dup2\n        /* \"#utility.yul\":1899:1929   */\n      gt\n        /* \"#utility.yul\":1896:1946   */\n      iszero\n      tag_159\n      jumpi\n        /* \"#utility.yul\":1942:1943   */\n      0x00\n        /* \"#utility.yul\":1939:1940   */\n      dup1\n        /* \"#utility.yul\":1932:1944   */\n      revert\n        /* \"#utility.yul\":1896:1946   */\n    tag_159:\n        /* \"#utility.yul\":1981:2040   */\n      tag_160\n        /* \"#utility.yul\":2032:2039   */\n      dup8\n        /* \"#utility.yul\":2023:2029   */\n      dup3\n        /* \"#utility.yul\":2012:2021   */\n      dup9\n        /* \"#utility.yul\":2008:2030   */\n      add\n        /* \"#utility.yul\":1981:2040   */\n      tag_134\n      jump\t// in\n    tag_160:\n        /* \"#utility.yul\":1598:2151   */\n      swap6\n      swap9\n        /* \"#utility.yul\":2059:2067   */\n      swap1\n      swap8\n      pop\n        /* \"#utility.yul\":1955:2040   */\n      swap5\n      swap6\n        /* \"#utility.yul\":2141:2143   */\n      0x40\n        /* \"#utility.yul\":2126:2144   */\n      add\n        /* \"#utility.yul\":2113:2145   */\n      calldataload\n      swap5\n        /* \"#utility.yul\":1598:2151   */\n      swap4\n      pop\n      pop\n      pop\n      pop\n      jump\t// out\n        /* \"#utility.yul\":2738:3011   */\n    tag_48:\n        /* \"#utility.yul\":2923:2929   */\n      dup2\n        /* \"#utility.yul\":2915:2921   */\n      dup4\n        /* \"#utility.yul\":2910:2913   */\n      dup3\n        /* \"#utility.yul\":2897:2930   */\n      calldatacopy\n        /* \"#utility.yul\":2879:2882   */\n      0x00\n        /* \"#utility.yul\":2949:2965   */\n      swap2\n      add\n        /* \"#utility.yul\":2974:2987   */\n      swap1\n      dup2\n      mstore\n        /* \"#utility.yul\":2949:2965   */\n      swap2\n        /* \"#utility.yul\":2738:3011   */\n      swap1\n      pop\n      jump\t// out\n        /* \"#utility.yul\":3226:3493   */\n    tag_136:\n        /* \"#utility.yul\":3315:3321   */\n      dup2\n        /* \"#utility.yul\":3310:3313   */\n      dup4\n        /* \"#utility.yul\":3303:3322   */\n      mstore\n        /* \"#utility.yul\":3367:3373   */\n      dup2\n        /* \"#utility.yul\":3360:3365   */\n      dup2\n        /* \"#utility.yul\":3353:3357   */\n      0x20\n        /* \"#utility.yul\":3348:3351   */\n      dup6\n        /* \"#utility.yul\":3344:3358   */\n      add\n        /* \"#utility.yul\":3331:3374   */\n      calldatacopy\n      pop\n        /* \"#utility.yul\":3419:3420   */\n      0x00\n        /* \"#utility.yul\":3394:3410   */\n      dup3\n      dup3\n      add\n        /* \"#utility.yul\":3412:3416   */\n      0x20\n        /* \"#utility.yul\":3390:3417   */\n      swap1\n      dup2\n      add\n        /* \"#utility.yul\":3383:3421   */\n      swap2\n      swap1\n      swap2\n      mstore\n        /* \"#utility.yul\":3475:3477   */\n      0x1f\n        /* \"#utility.yul\":3454:3469   */\n      swap1\n      swap2\n      add\n      not(0x1f)\n        /* \"#utility.yul\":3450:3479   */\n      and\n        /* \"#utility.yul\":3441:3480   */\n      swap1\n      swap2\n      add\n        /* \"#utility.yul\":3437:3487   */\n      add\n      swap1\n        /* \"#utility.yul\":3226:3493   */\n      jump\t// out\n        /* \"#utility.yul\":3498:3936   */\n    tag_57:\n        /* \"#utility.yul\":3713:3715   */\n      0x60\n        /* \"#utility.yul\":3702:3711   */\n      dup2\n        /* \"#utility.yul\":3695:3716   */\n      mstore\n        /* \"#utility.yul\":3676:3680   */\n      0x00\n        /* \"#utility.yul\":3733:3795   */\n      tag_167\n        /* \"#utility.yul\":3791:3793   */\n      0x60\n        /* \"#utility.yul\":3780:3789   */\n      dup4\n        /* \"#utility.yul\":3776:3794   */\n      add\n        /* \"#utility.yul\":3768:3774   */\n      dup7\n        /* \"#utility.yul\":3760:3766   */\n      dup9\n        /* \"#utility.yul\":3733:3795   */\n      tag_136\n      jump\t// in\n    tag_167:\n      sub(shl(0xa0, 0x01), 0x01)\n        /* \"#utility.yul\":3831:3886   */\n      swap5\n      swap1\n      swap5\n      and\n        /* \"#utility.yul\":3826:3828   */\n      0x20\n        /* \"#utility.yul\":3811:3829   */\n      dup4\n      add\n        /* \"#utility.yul\":3804:3887   */\n      mstore\n      pop\n        /* \"#utility.yul\":3918:3920   */\n      0x40\n        /* \"#utility.yul\":3903:3921   */\n      add\n        /* \"#utility.yul\":3896:3930   */\n      mstore\n        /* \"#utility.yul\":3725:3795   */\n      swap3\n        /* \"#utility.yul\":3498:3936   */\n      swap2\n      pop\n      pop\n      jump\t// out\n        /* \"#utility.yul\":4243:4623   */\n    tag_63:\n        /* \"#utility.yul\":4322:4323   */\n      0x01\n        /* \"#utility.yul\":4318:4330   */\n      dup2\n      dup2\n      shr\n      swap1\n        /* \"#utility.yul\":4365:4377   */\n      dup3\n      and\n      dup1\n        /* \"#utility.yul\":4386:4447   */\n      tag_170\n      jumpi\n        /* \"#utility.yul\":4440:4444   */\n      0x7f\n        /* \"#utility.yul\":4432:4438   */\n      dup3\n        /* \"#utility.yul\":4428:4445   */\n      and\n        /* \"#utility.yul\":4418:4445   */\n      swap2\n      pop\n        /* \"#utility.yul\":4386:4447   */\n    tag_170:\n        /* \"#utility.yul\":4493:4495   */\n      0x20\n        /* \"#utility.yul\":4485:4491   */\n      dup3\n        /* \"#utility.yul\":4482:4496   */\n      lt\n        /* \"#utility.yul\":4462:4480   */\n      dup2\n        /* \"#utility.yul\":4459:4497   */\n      sub\n        /* \"#utility.yul\":4456:4617   */\n      tag_171\n      jumpi\n        /* \"#utility.yul\":4539:4549   */\n      0x4e487b71\n        /* \"#utility.yul\":4534:4537   */\n      0xe0\n        /* \"#utility.yul\":4530:4550   */\n      shl\n        /* \"#utility.yul\":4527:4528   */\n      0x00\n        /* \"#utility.yul\":4520:4551   */\n      mstore\n        /* \"#utility.yul\":4574:4578   */\n      0x22\n        /* \"#utility.yul\":4571:4572   */\n      0x04\n        /* \"#utility.yul\":4564:4579   */\n      mstore\n        /* \"#utility.yul\":4602:4606   */\n      0x24\n        /* \"#utility.yul\":4599:4600   */\n      0x00\n        /* \"#utility.yul\":4592:4607   */\n      revert\n        /* \"#utility.yul\":4456:4617   */\n    tag_171:\n      pop\n        /* \"#utility.yul\":4243:4623   */\n      swap2\n      swap1\n      pop\n      jump\t// out\n        /* \"#utility.yul\":4976:5223   */\n    tag_76:\n        /* \"#utility.yul\":5135:5137   */\n      0x20\n        /* \"#utility.yul\":5124:5133   */\n      dup2\n        /* \"#utility.yul\":5117:5138   */\n      mstore\n        /* \"#utility.yul\":5098:5102   */\n      0x00\n        /* \"#utility.yul\":5155:5217   */\n      tag_174\n        /* \"#utility.yul\":5213:5215   */\n      0x20\n        /* \"#utility.yul\":5202:5211   */\n      dup4\n        /* \"#utility.yul\":5198:5216   */\n      add\n        /* \"#utility.yul\":5190:5196   */\n      dup5\n        /* \"#utility.yul\":5182:5188   */\n      dup7\n        /* \"#utility.yul\":5155:5217   */\n      tag_136\n      jump\t// in\n    tag_174:\n        /* \"#utility.yul\":5147:5217   */\n      swap5\n        /* \"#utility.yul\":4976:5223   */\n      swap4\n      pop\n      pop\n      pop\n      pop\n      jump\t// out\n        /* \"#utility.yul\":5358:6205   */\n    tag_80:\n        /* \"#utility.yul\":5490:5493   */\n      0x00\n        /* \"#utility.yul\":5519:5520   */\n      dup1\n        /* \"#utility.yul\":5552:5558   */\n      dup4\n        /* \"#utility.yul\":5546:5559   */\n      sload\n        /* \"#utility.yul\":5582:5618   */\n      tag_177\n        /* \"#utility.yul\":5608:5617   */\n      dup2\n        /* \"#utility.yul\":5582:5618   */\n      tag_63\n      jump\t// in\n    tag_177:\n        /* \"#utility.yul\":5637:5638   */\n      0x01\n        /* \"#utility.yul\":5654:5671   */\n      dup3\n      dup2\n      and\n        /* \"#utility.yul\":5680:5813   */\n      dup1\n      iszero\n      tag_179\n      jumpi\n        /* \"#utility.yul\":5827:5828   */\n      0x01\n        /* \"#utility.yul\":5822:6180   */\n      dup2\n      eq\n      tag_180\n      jumpi\n        /* \"#utility.yul\":5647:6180   */\n      jump(tag_178)\n        /* \"#utility.yul\":5680:5813   */\n    tag_179:\n      not(0xff)\n        /* \"#utility.yul\":5713:5737   */\n      dup5\n      and\n        /* \"#utility.yul\":5701:5738   */\n      dup8\n      mstore\n        /* \"#utility.yul\":5786:5800   */\n      dup3\n      iszero\n        /* \"#utility.yul\":5779:5801   */\n      iszero\n        /* \"#utility.yul\":5767:5802   */\n      dup4\n      mul\n        /* \"#utility.yul\":5758:5803   */\n      dup8\n      add\n      swap5\n      pop\n        /* \"#utility.yul\":5680:5813   */\n      jump(tag_178)\n        /* \"#utility.yul\":5822:6180   */\n    tag_180:\n        /* \"#utility.yul\":5853:5859   */\n      dup8\n        /* \"#utility.yul\":5850:5851   */\n      0x00\n        /* \"#utility.yul\":5843:5860   */\n      mstore\n        /* \"#utility.yul\":5883:5887   */\n      0x20\n        /* \"#utility.yul\":5928:5932   */\n      dup1\n        /* \"#utility.yul\":5925:5926   */\n      0x00\n        /* \"#utility.yul\":5915:5933   */\n      keccak256\n        /* \"#utility.yul\":5955:5956   */\n      0x00\n        /* \"#utility.yul\":5969:6134   */\n    tag_181:\n        /* \"#utility.yul\":5983:5989   */\n      dup6\n        /* \"#utility.yul\":5980:5981   */\n      dup2\n        /* \"#utility.yul\":5977:5990   */\n      lt\n        /* \"#utility.yul\":5969:6134   */\n      iszero\n      tag_183\n      jumpi\n        /* \"#utility.yul\":6061:6075   */\n      dup2\n      sload\n        /* \"#utility.yul\":6048:6059   */\n      dup11\n      dup3\n      add\n        /* \"#utility.yul\":6041:6076   */\n      mstore\n        /* \"#utility.yul\":6104:6120   */\n      swap1\n      dup5\n      add\n      swap1\n        /* \"#utility.yul\":5998:6008   */\n      dup3\n      add\n        /* \"#utility.yul\":5969:6134   */\n      jump(tag_181)\n    tag_183:\n        /* \"#utility.yul\":5973:5976   */\n      pop\n      pop\n      pop\n        /* \"#utility.yul\":6163:6169   */\n      dup3\n        /* \"#utility.yul\":6158:6161   */\n      dup8\n        /* \"#utility.yul\":6154:6170   */\n      add\n        /* \"#utility.yul\":6147:6170   */\n      swap5\n      pop\n        /* \"#utility.yul\":5647:6180   */\n    tag_178:\n      pop\n        /* \"#utility.yul\":6196:6199   */\n      swap3\n      swap7\n        /* \"#utility.yul\":5358:6205   */\n      swap6\n      pop\n      pop\n      pop\n      pop\n      pop\n      pop\n      jump\t// out\n        /* \"#utility.yul\":6210:7176   */\n    tag_82:\n        /* \"#utility.yul\":6323:6327   */\n      0x00\n        /* \"#utility.yul\":6352:6354   */\n      0x20\n        /* \"#utility.yul\":6381:6383   */\n      dup1\n        /* \"#utility.yul\":6370:6379   */\n      dup4\n        /* \"#utility.yul\":6363:6384   */\n      mstore\n        /* \"#utility.yul\":6404:6405   */\n      0x00\n        /* \"#utility.yul\":6437:6443   */\n      dup5\n        /* \"#utility.yul\":6431:6444   */\n      sload\n        /* \"#utility.yul\":6467:6503   */\n      tag_185\n        /* \"#utility.yul\":6493:6502   */\n      dup2\n        /* \"#utility.yul\":6467:6503   */\n      tag_63\n      jump\t// in\n    tag_185:\n        /* \"#utility.yul\":6539:6545   */\n      dup1\n        /* \"#utility.yul\":6534:6536   */\n      0x20\n        /* \"#utility.yul\":6523:6532   */\n      dup8\n        /* \"#utility.yul\":6519:6537   */\n      add\n        /* \"#utility.yul\":6512:6546   */\n      mstore\n        /* \"#utility.yul\":6565:6567   */\n      0x40\n        /* \"#utility.yul\":6586:6587   */\n      0x01\n        /* \"#utility.yul\":6618:6619   */\n      dup1\n        /* \"#utility.yul\":6607:6616   */\n      dup5\n        /* \"#utility.yul\":6603:6620   */\n      and\n        /* \"#utility.yul\":6634:6635   */\n      0x00\n        /* \"#utility.yul\":6629:6787   */\n      dup2\n      eq\n      tag_187\n      jumpi\n        /* \"#utility.yul\":6801:6802   */\n      0x01\n        /* \"#utility.yul\":6796:7150   */\n      dup2\n      eq\n      tag_188\n      jumpi\n        /* \"#utility.yul\":6596:7150   */\n      jump(tag_186)\n        /* \"#utility.yul\":6629:6787   */\n    tag_187:\n        /* \"#utility.yul\":6696:6699   */\n      0xff\n        /* \"#utility.yul\":6692:6700   */\n      not\n        /* \"#utility.yul\":6681:6690   */\n      dup6\n        /* \"#utility.yul\":6677:6701   */\n      and\n        /* \"#utility.yul\":6672:6674   */\n      0x40\n        /* \"#utility.yul\":6661:6670   */\n      dup11\n        /* \"#utility.yul\":6657:6675   */\n      add\n        /* \"#utility.yul\":6650:6702   */\n      mstore\n        /* \"#utility.yul\":6774:6776   */\n      0x40\n        /* \"#utility.yul\":6762:6768   */\n      dup5\n        /* \"#utility.yul\":6755:6769   */\n      iszero\n        /* \"#utility.yul\":6748:6770   */\n      iszero\n        /* \"#utility.yul\":6745:6746   */\n      0x05\n        /* \"#utility.yul\":6741:6771   */\n      shl\n        /* \"#utility.yul\":6730:6739   */\n      dup11\n        /* \"#utility.yul\":6726:6772   */\n      add\n        /* \"#utility.yul\":6722:6777   */\n      add\n        /* \"#utility.yul\":6715:6777   */\n      swap6\n      pop\n        /* \"#utility.yul\":6629:6787   */\n      jump(tag_186)\n        /* \"#utility.yul\":6796:7150   */\n    tag_188:\n        /* \"#utility.yul\":6827:6833   */\n      dup10\n        /* \"#utility.yul\":6824:6825   */\n      0x00\n        /* \"#utility.yul\":6817:6834   */\n      mstore\n        /* \"#utility.yul\":6875:6877   */\n      0x20\n        /* \"#utility.yul\":6872:6873   */\n      0x00\n        /* \"#utility.yul\":6862:6878   */\n      keccak256\n        /* \"#utility.yul\":6900:6901   */\n      0x00\n        /* \"#utility.yul\":6914:7094   */\n    tag_189:\n        /* \"#utility.yul\":6928:6934   */\n      dup6\n        /* \"#utility.yul\":6925:6926   */\n      dup2\n        /* \"#utility.yul\":6922:6935   */\n      lt\n        /* \"#utility.yul\":6914:7094   */\n      iszero\n      tag_191\n      jumpi\n        /* \"#utility.yul\":7021:7035   */\n      dup2\n      sload\n        /* \"#utility.yul\":6997:7014   */\n      dup12\n      dup3\n      add\n        /* \"#utility.yul\":6993:7019   */\n      dup7\n      add\n        /* \"#utility.yul\":6986:7036   */\n      mstore\n        /* \"#utility.yul\":7064:7080   */\n      swap1\n      dup4\n      add\n      swap1\n        /* \"#utility.yul\":6943:6953   */\n      dup9\n      add\n        /* \"#utility.yul\":6914:7094   */\n      jump(tag_189)\n    tag_191:\n        /* \"#utility.yul\":7118:7135   */\n      dup11\n      add\n        /* \"#utility.yul\":7137:7139   */\n      0x40\n        /* \"#utility.yul\":7114:7140   */\n      add\n      swap7\n      pop\n      pop\n        /* \"#utility.yul\":6596:7150   */\n    tag_186:\n      pop\n        /* \"#utility.yul\":7167:7170   */\n      swap4\n      swap9\n        /* \"#utility.yul\":6210:7176   */\n      swap8\n      pop\n      pop\n      pop\n      pop\n      pop\n      pop\n      pop\n      pop\n      jump\t// out\n        /* \"#utility.yul\":7181:7308   */\n    tag_138:\n        /* \"#utility.yul\":7242:7252   */\n      0x4e487b71\n        /* \"#utility.yul\":7237:7240   */\n      0xe0\n        /* \"#utility.yul\":7233:7253   */\n      shl\n        /* \"#utility.yul\":7230:7231   */\n      0x00\n        /* \"#utility.yul\":7223:7254   */\n      mstore\n        /* \"#utility.yul\":7273:7277   */\n      0x41\n        /* \"#utility.yul\":7270:7271   */\n      0x04\n        /* \"#utility.yul\":7263:7278   */\n      mstore\n        /* \"#utility.yul\":7297:7301   */\n      0x24\n        /* \"#utility.yul\":7294:7295   */\n      0x00\n        /* \"#utility.yul\":7287:7302   */\n      revert\n        /* \"#utility.yul\":7313:7831   */\n    tag_139:\n        /* \"#utility.yul\":7415:7417   */\n      0x1f\n        /* \"#utility.yul\":7410:7413   */\n      dup3\n        /* \"#utility.yul\":7407:7418   */\n      gt\n        /* \"#utility.yul\":7404:7825   */\n      iszero\n      tag_58\n      jumpi\n        /* \"#utility.yul\":7451:7456   */\n      dup1\n        /* \"#utility.yul\":7448:7449   */\n      0x00\n        /* \"#utility.yul\":7441:7457   */\n      mstore\n        /* \"#utility.yul\":7495:7499   */\n      0x20\n        /* \"#utility.yul\":7492:7493   */\n      0x00\n        /* \"#utility.yul\":7482:7500   */\n      keccak256\n        /* \"#utility.yul\":7565:7567   */\n      0x1f\n        /* \"#utility.yul\":7553:7563   */\n      dup5\n        /* \"#utility.yul\":7549:7568   */\n      add\n        /* \"#utility.yul\":7546:7547   */\n      0x05\n        /* \"#utility.yul\":7542:7569   */\n      shr\n        /* \"#utility.yul\":7536:7540   */\n      dup2\n        /* \"#utility.yul\":7532:7570   */\n      add\n        /* \"#utility.yul\":7601:7605   */\n      0x20\n        /* \"#utility.yul\":7589:7599   */\n      dup6\n        /* \"#utility.yul\":7586:7606   */\n      lt\n        /* \"#utility.yul\":7583:7630   */\n      iszero\n      tag_195\n      jumpi\n      pop\n        /* \"#utility.yul\":7624:7628   */\n      dup1\n        /* \"#utility.yul\":7583:7630   */\n    tag_195:\n        /* \"#utility.yul\":7679:7681   */\n      0x1f\n        /* \"#utility.yul\":7674:7677   */\n      dup5\n        /* \"#utility.yul\":7670:7682   */\n      add\n        /* \"#utility.yul\":7667:7668   */\n      0x05\n        /* \"#utility.yul\":7663:7683   */\n      shr\n        /* \"#utility.yul\":7657:7661   */\n      dup3\n        /* \"#utility.yul\":7653:7684   */\n      add\n        /* \"#utility.yul\":7643:7684   */\n      swap2\n      pop\n        /* \"#utility.yul\":7734:7815   */\n    tag_196:\n        /* \"#utility.yul\":7752:7754   */\n      dup2\n        /* \"#utility.yul\":7745:7750   */\n      dup2\n        /* \"#utility.yul\":7742:7755   */\n      lt\n        /* \"#utility.yul\":7734:7815   */\n      iszero\n      tag_107\n      jumpi\n        /* \"#utility.yul\":7811:7812   */\n      0x00\n        /* \"#utility.yul\":7797:7813   */\n      dup2\n      sstore\n        /* \"#utility.yul\":7778:7779   */\n      0x01\n        /* \"#utility.yul\":7767:7780   */\n      add\n        /* \"#utility.yul\":7734:7815   */\n      jump(tag_196)\n        /* \"#utility.yul\":8007:9209   */\n    tag_84:\n        /* \"#utility.yul\":8131:8149   */\n      0xffffffffffffffff\n        /* \"#utility.yul\":8126:8129   */\n      dup4\n        /* \"#utility.yul\":8123:8150   */\n      gt\n        /* \"#utility.yul\":8120:8173   */\n      iszero\n      tag_202\n      jumpi\n        /* \"#utility.yul\":8153:8171   */\n      tag_202\n      tag_138\n      jump\t// in\n    tag_202:\n        /* \"#utility.yul\":8182:8276   */\n      tag_203\n        /* \"#utility.yul\":8272:8275   */\n      dup4\n        /* \"#utility.yul\":8232:8270   */\n      tag_204\n        /* \"#utility.yul\":8264:8268   */\n      dup4\n        /* \"#utility.yul\":8258:8269   */\n      sload\n        /* \"#utility.yul\":8232:8270   */\n      tag_63\n      jump\t// in\n    tag_204:\n        /* \"#utility.yul\":8226:8230   */\n      dup4\n        /* \"#utility.yul\":8182:8276   */\n      tag_139\n      jump\t// in\n    tag_203:\n        /* \"#utility.yul\":8302:8303   */\n      0x00\n        /* \"#utility.yul\":8327:8329   */\n      0x1f\n        /* \"#utility.yul\":8322:8325   */\n      dup5\n        /* \"#utility.yul\":8319:8330   */\n      gt\n        /* \"#utility.yul\":8344:8345   */\n      0x01\n        /* \"#utility.yul\":8339:8951   */\n      dup2\n      eq\n      tag_206\n      jumpi\n        /* \"#utility.yul\":8995:8996   */\n      0x00\n        /* \"#utility.yul\":9012:9015   */\n      dup6\n        /* \"#utility.yul\":9009:9102   */\n      iszero\n      tag_207\n      jumpi\n      pop\n        /* \"#utility.yul\":9068:9087   */\n      dup4\n      dup3\n      add\n        /* \"#utility.yul\":9055:9088   */\n      calldataload\n        /* \"#utility.yul\":9009:9102   */\n    tag_207:\n      not(0x00)\n        /* \"#utility.yul\":7964:7965   */\n      0x03\n        /* \"#utility.yul\":7960:7971   */\n      dup8\n      swap1\n      shl\n        /* \"#utility.yul\":7956:7980   */\n      shr\n        /* \"#utility.yul\":7952:7981   */\n      not\n        /* \"#utility.yul\":7942:7982   */\n      and\n        /* \"#utility.yul\":7988:7989   */\n      0x01\n        /* \"#utility.yul\":7984:7995   */\n      dup7\n      swap1\n      shl\n        /* \"#utility.yul\":7939:7996   */\n      or\n        /* \"#utility.yul\":9115:9193   */\n      dup4\n      sstore\n        /* \"#utility.yul\":8312:9203   */\n      jump(tag_107)\n        /* \"#utility.yul\":8339:8951   */\n    tag_206:\n        /* \"#utility.yul\":5305:5306   */\n      0x00\n        /* \"#utility.yul\":5298:5312   */\n      dup4\n      dup2\n      mstore\n        /* \"#utility.yul\":5342:5346   */\n      0x20\n        /* \"#utility.yul\":5329:5347   */\n      dup2\n      keccak256\n      not(0x1f)\n        /* \"#utility.yul\":8375:8392   */\n      dup8\n      and\n      swap2\n        /* \"#utility.yul\":8494:8723   */\n    tag_210:\n        /* \"#utility.yul\":8508:8515   */\n      dup3\n        /* \"#utility.yul\":8505:8506   */\n      dup2\n        /* \"#utility.yul\":8502:8516   */\n      lt\n        /* \"#utility.yul\":8494:8723   */\n      iszero\n      tag_212\n      jumpi\n        /* \"#utility.yul\":8597:8616   */\n      dup7\n      dup6\n      add\n        /* \"#utility.yul\":8584:8617   */\n      calldataload\n        /* \"#utility.yul\":8569:8618   */\n      dup3\n      sstore\n        /* \"#utility.yul\":8704:8708   */\n      0x20\n        /* \"#utility.yul\":8689:8709   */\n      swap5\n      dup6\n      add\n      swap5\n        /* \"#utility.yul\":8657:8658   */\n      0x01\n        /* \"#utility.yul\":8645:8659   */\n      swap1\n      swap3\n      add\n      swap2\n        /* \"#utility.yul\":8524:8536   */\n      add\n        /* \"#utility.yul\":8494:8723   */\n      jump(tag_210)\n    tag_212:\n        /* \"#utility.yul\":8498:8501   */\n      pop\n        /* \"#utility.yul\":8751:8754   */\n      dup7\n        /* \"#utility.yul\":8742:8749   */\n      dup3\n        /* \"#utility.yul\":8739:8755   */\n      lt\n        /* \"#utility.yul\":8736:8895   */\n      iszero\n      tag_213\n      jumpi\n        /* \"#utility.yul\":8875:8876   */\n      0x00\n        /* \"#utility.yul\":8871:8877   */\n      not\n        /* \"#utility.yul\":8865:8868   */\n      0xf8\n        /* \"#utility.yul\":8859:8862   */\n      dup9\n        /* \"#utility.yul\":8856:8857   */\n      0x03\n        /* \"#utility.yul\":8852:8863   */\n      shl\n        /* \"#utility.yul\":8848:8869   */\n      and\n        /* \"#utility.yul\":8844:8878   */\n      shr\n        /* \"#utility.yul\":8840:8879   */\n      not\n        /* \"#utility.yul\":8827:8836   */\n      dup5\n        /* \"#utility.yul\":8822:8825   */\n      dup8\n        /* \"#utility.yul\":8818:8837   */\n      add\n        /* \"#utility.yul\":8805:8838   */\n      calldataload\n        /* \"#utility.yul\":8801:8880   */\n      and\n        /* \"#utility.yul\":8793:8799   */\n      dup2\n        /* \"#utility.yul\":8786:8881   */\n      sstore\n        /* \"#utility.yul\":8736:8895   */\n    tag_213:\n      pop\n      pop\n        /* \"#utility.yul\":8938:8939   */\n      0x01\n        /* \"#utility.yul\":8932:8935   */\n      dup6\n        /* \"#utility.yul\":8929:8930   */\n      0x01\n        /* \"#utility.yul\":8925:8936   */\n      shl\n        /* \"#utility.yul\":8921:8940   */\n      add\n        /* \"#utility.yul\":8915:8919   */\n      dup4\n        /* \"#utility.yul\":8908:8941   */\n      sstore\n        /* \"#utility.yul\":8312:9203   */\n      pop\n      pop\n        /* \"#utility.yul\":8007:9209   */\n      pop\n      pop\n      pop\n      jump\t// out\n        /* \"#utility.yul\":9964:10265   */\n    tag_97:\n        /* \"#utility.yul\":10093:10096   */\n      0x00\n        /* \"#utility.yul\":10131:10137   */\n      dup3\n        /* \"#utility.yul\":10125:10138   */\n      mload\n        /* \"#utility.yul\":10177:10183   */\n      dup1\n        /* \"#utility.yul\":10170:10174   */\n      0x20\n        /* \"#utility.yul\":10162:10168   */\n      dup6\n        /* \"#utility.yul\":10158:10175   */\n      add\n        /* \"#utility.yul\":10153:10156   */\n      dup5\n        /* \"#utility.yul\":10147:10184   */\n      mcopy\n        /* \"#utility.yul\":10239:10240   */\n      0x00\n        /* \"#utility.yul\":10203:10219   */\n      swap3\n      add\n        /* \"#utility.yul\":10228:10241   */\n      swap2\n      dup3\n      mstore\n      pop\n        /* \"#utility.yul\":10203:10219   */\n      swap2\n        /* \"#utility.yul\":9964:10265   */\n      swap1\n      pop\n      jump\t// out\n        /* \"#utility.yul\":10270:10547   */\n    tag_104:\n        /* \"#utility.yul\":10337:10343   */\n      0x00\n        /* \"#utility.yul\":10390:10392   */\n      0x20\n        /* \"#utility.yul\":10378:10387   */\n      dup3\n        /* \"#utility.yul\":10369:10376   */\n      dup5\n        /* \"#utility.yul\":10365:10388   */\n      sub\n        /* \"#utility.yul\":10361:10393   */\n      slt\n        /* \"#utility.yul\":10358:10410   */\n      iszero\n      tag_218\n      jumpi\n        /* \"#utility.yul\":10406:10407   */\n      0x00\n        /* \"#utility.yul\":10403:10404   */\n      dup1\n        /* \"#utility.yul\":10396:10408   */\n      revert\n        /* \"#utility.yul\":10358:10410   */\n    tag_218:\n        /* \"#utility.yul\":10438:10447   */\n      dup2\n        /* \"#utility.yul\":10432:10448   */\n      mload\n        /* \"#utility.yul\":10491:10496   */\n      dup1\n        /* \"#utility.yul\":10484:10497   */\n      iszero\n        /* \"#utility.yul\":10477:10498   */\n      iszero\n        /* \"#utility.yul\":10470:10475   */\n      dup2\n        /* \"#utility.yul\":10467:10499   */\n      eq\n        /* \"#utility.yul\":10457:10517   */\n      tag_154\n      jumpi\n        /* \"#utility.yul\":10513:10514   */\n      0x00\n        /* \"#utility.yul\":10510:10511   */\n      dup1\n        /* \"#utility.yul\":10503:10515   */\n      revert\n\n    auxdata: 0xa26469706673582212209b32b2246827b6c5a2677cb2641123c2cb65044833516ecfd61ef2eda59016a464736f6c63430008190033\n}\n",
    "bytecode": {
      "linkReferences": {},
      "object": "6080604052348015600e575f80fd5b50610ec78061001c5f395ff3fe60806040526004361061006e575f3560e01c806319f8a37e1161004c57806319f8a37e146100db578063673cf6bc146100fa5780639af8297f14610131578063d1dc4ad314610145575f80fd5b8063075895c7146100725780630cd4a7c0146100875780631124c7ef146100bc575b5f80fd5b610085610080366004610a90565b610159565b005b348015610092575f80fd5b506100a66100a1366004610aea565b6102ff565b6040516100b39190610b0a565b60405180910390f35b3480156100c7575f80fd5b506100856100d6366004610a90565b610396565b3480156100e6575f80fd5b506100856100f5366004610b3f565b6105c3565b348015610105575f80fd5b50610119610114366004610a90565b610828565b6040516001600160a01b0390911681526020016100b3565b34801561013c575f80fd5b506100a661085c565b348015610150575f80fd5b506100856108fa565b5f34116101ad5760405162461bcd60e51b815260206004820152601660248201527f45544820616d6f756e74206d757374206265203e20300000000000000000000060448201526064015b60405180910390fd5b5f600183836040516101c0929190610b95565b908152604051908190036020019020546001600160a01b0316905080156102a8575f816001600160a01b0316346040515f6040518083038185875af1925050503d805f811461022a576040519150601f19603f3d011682016040523d82523d5f602084013e61022f565b606091505b5050905080610251576040516312171d8360e31b815260040160405180910390fd5b816001600160a01b0316336001600160a01b03167f7a502eaddf6de613898d28b00ba86919cbe3fbc5c467339da0253f1dccfbe30e86865f3460405161029a9493929190610bcc565b60405180910390a350505050565b82826040516102b8929190610b95565b604080519182900382205f83523460208401529133917f43bc5d5274ed0caf87e36ff96a38cec4bbb40322abc8c0e1d2787a802100b2bb910160405180910390a35b505050565b5f602081905290815260409020805461031790610bfb565b80601f016020809104026020016040519081016040528092919081815260200182805461034390610bfb565b801561038e5780601f106103655761010080835404028352916020019161038e565b820191905f5260205f20905b81548152906001019060200180831161037157829003601f168201915b505050505081565b5f82828080601f0160208091040260200160405190810160405280939291908181526020018383808284375f92019190915250508251929350505061041d5760405162461bcd60e51b815260206004820152601360248201527f5550492063616e6e6f7420626520656d7074790000000000000000000000000060448201526064016101a4565b5f60018484604051610430929190610b95565b908152604051908190036020019020546001600160a01b03169050801580159061046357506001600160a01b0381163314155b156104855783836040516348e30e1960e01b81526004016101a4929190610c33565b335f908152602081905260409020805481906104a090610bfb565b159050610519576001816040516104b79190610c4e565b908152604051908190036020018120805473ffffffffffffffffffffffffffffffffffffffff1916905533907f609932e3f0ab81708ad57cccf85d188e591c96af1d42405da49bac706f09b67290610510908490610cc0565b60405180910390a25b335f908152602081905260409020610532858783610da2565b503360018686604051610546929190610b95565b90815260405190819003602001812080546001600160a01b039390931673ffffffffffffffffffffffffffffffffffffffff199093169290921790915533907fb6da3bad99d05b0c3427c43d1b921db9009568d188763bbd0ecef66a58a339f4906105b49088908890610c33565b60405180910390a25050505050565b6001600160a01b0384166105ea5760405163d92e233d60e01b815260040160405180910390fd5b5f81116106395760405162461bcd60e51b815260206004820152601260248201527f616d6f756e74206d757374206265203e2030000000000000000000000000000060448201526064016101a4565b5f6001848460405161064c929190610b95565b908152604051908190036020019020546001600160a01b0316905080156107c557604080513360248201526001600160a01b038381166044830152606480830186905283518084039091018152608490920183526020820180517bffffffffffffffffffffffffffffffffffffffffffffffffffffffff166323b872dd60e01b17905291515f928392908916916106e39190610e5c565b5f604051808303815f865af19150503d805f811461071c576040519150601f19603f3d011682016040523d82523d5f602084013e610721565b606091505b509150915081158061074f57505f815111801561074f57508080602001905181019061074d9190610e72565b155b1561076d576040516312171d8360e31b815260040160405180910390fd5b826001600160a01b0316336001600160a01b03167f7a502eaddf6de613898d28b00ba86919cbe3fbc5c467339da0253f1dccfbe30e88888b896040516107b69493929190610bcc565b60405180910390a35050610821565b83836040516107d5929190610b95565b604080519182900382206001600160a01b0388168352602083018590529133917f43bc5d5274ed0caf87e36ff96a38cec4bbb40322abc8c0e1d2787a802100b2bb910160405180910390a35b5050505050565b5f6001838360405161083b929190610b95565b908152604051908190036020019020546001600160a01b0316905092915050565b335f90815260208190526040902080546060919061087990610bfb565b80601f01602080910402602001604051908101604052809291908181526020018280546108a590610bfb565b80156108f05780601f106108c7576101008083540402835291602001916108f0565b820191905f5260205f20905b8154815290600101906020018083116108d357829003601f168201915b5050505050905090565b335f9081526020819052604090208054819061091590610bfb565b90505f036109655760405162461bcd60e51b815260206004820152600a60248201527f6e6f20757069207365740000000000000000000000000000000000000000000060448201526064016101a4565b6001816040516109759190610c4e565b9081526040805160209281900383019020805473ffffffffffffffffffffffffffffffffffffffff19169055335f9081529182905281206109b5916109f9565b336001600160a01b03167f609932e3f0ab81708ad57cccf85d188e591c96af1d42405da49bac706f09b672826040516109ee9190610cc0565b60405180910390a250565b508054610a0590610bfb565b5f825580601f10610a14575050565b601f0160209004905f5260205f2090810190610a309190610a33565b50565b5b80821115610a47575f8155600101610a34565b5090565b5f8083601f840112610a5b575f80fd5b50813567ffffffffffffffff811115610a72575f80fd5b602083019150836020828501011115610a89575f80fd5b9250929050565b5f8060208385031215610aa1575f80fd5b823567ffffffffffffffff811115610ab7575f80fd5b610ac385828601610a4b565b90969095509350505050565b80356001600160a01b0381168114610ae5575f80fd5b919050565b5f60208284031215610afa575f80fd5b610b0382610acf565b9392505050565b602081525f82518060208401528060208501604085015e5f604082850101526040601f19601f83011684010191505092915050565b5f805f8060608587031215610b52575f80fd5b610b5b85610acf565b9350602085013567ffffffffffffffff811115610b76575f80fd5b610b8287828801610a4b565b9598909750949560400135949350505050565b818382375f9101908152919050565b81835281816020850137505f828201602090810191909152601f909101601f19169091010190565b606081525f610bdf606083018688610ba4565b6001600160a01b03949094166020830152506040015292915050565b600181811c90821680610c0f57607f821691505b602082108103610c2d57634e487b7160e01b5f52602260045260245ffd5b50919050565b602081525f610c46602083018486610ba4565b949350505050565b5f808354610c5b81610bfb565b60018281168015610c735760018114610c8857610cb4565b60ff1984168752821515830287019450610cb4565b875f526020805f205f5b85811015610cab5781548a820152908401908201610c92565b50505082870194505b50929695505050505050565b5f60208083525f8454610cd281610bfb565b806020870152604060018084165f8114610cf35760018114610d0f57610d3c565b60ff19851660408a0152604084151560051b8a01019550610d3c565b895f5260205f205f5b85811015610d335781548b8201860152908301908801610d18565b8a016040019650505b509398975050505050505050565b634e487b7160e01b5f52604160045260245ffd5b601f8211156102fa57805f5260205f20601f840160051c81016020851015610d835750805b601f840160051c820191505b81811015610821575f8155600101610d8f565b67ffffffffffffffff831115610dba57610dba610d4a565b610dce83610dc88354610bfb565b83610d5e565b5f601f841160018114610dff575f8515610de85750838201355b5f19600387901b1c1916600186901b178355610821565b5f83815260208120601f198716915b82811015610e2e5786850135825560209485019460019092019101610e0e565b5086821015610e4a575f1960f88860031b161c19848701351681555b505060018560011b0183555050505050565b5f82518060208501845e5f920191825250919050565b5f60208284031215610e82575f80fd5b81518015158114610b03575f80fdfea26469706673582212209b32b2246827b6c5a2677cb2641123c2cb65044833516ecfd61ef2eda59016a464736f6c63430008190033",
      "opcodes": "PUSH1 0x80 PUSH1 0x40 MSTORE CALLVALUE DUP1 ISZERO PUSH1 0xE JUMPI PUSH0 DUP1 REVERT JUMPDEST POP PUSH2 0xEC7 DUP1 PUSH2 0x1C PUSH0 CODECOPY PUSH0 RETURN INVALID PUSH1 0x80 PUSH1 0x40 MSTORE PUSH1 0x4 CALLDATASIZE LT PUSH2 0x6E JUMPI PUSH0 CALLDATALOAD PUSH1 0xE0 SHR DUP1 PUSH4 0x19F8A37E GT PUSH2 0x4C JUMPI DUP1 PUSH4 0x19F8A37E EQ PUSH2 0xDB JUMPI DUP1 PUSH4 0x673CF6BC EQ PUSH2 0xFA JUMPI DUP1 PUSH4 0x9AF8297F EQ PUSH2 0x131 JUMPI DUP1 PUSH4 0xD1DC4AD3 EQ PUSH2 0x145 JUMPI PUSH0 DUP1 REVERT JUMPDEST DUP1 PUSH4 0x75895C7 EQ PUSH2 0x72 JUMPI DUP1 PUSH4 0xCD4A7C0 EQ PUSH2 0x87 JUMPI DUP1 PUSH4 0x1124C7EF EQ PUSH2 0xBC JUMPI JUMPDEST PUSH0 DUP1 REVERT JUMPDEST PUSH2 0x85 PUSH2 0x80 CALLDATASIZE PUSH1 0x4 PUSH2 0xA90 JUMP JUMPDEST PUSH2 0x159 JUMP JUMPDEST STOP JUMPDEST CALLVALUE DUP1 ISZERO PUSH2 0x92 JUMPI PUSH0 DUP1 REVERT JUMPDEST POP PUSH2 0xA6 PUSH2 0xA1 CALLDATASIZE PUSH1 0x4 PUSH2 0xAEA JUMP JUMPDEST PUSH2 0x2FF JUMP JUMPDEST PUSH1 0x40 MLOAD PUSH2 0xB3 SWAP2 SWAP1 PUSH2 0xB0A JUMP JUMPDEST PUSH1 0x40 MLOAD DUP1 SWAP2 SUB SWAP1 RETURN JUMPDEST CALLVALUE DUP1 ISZERO PUSH2 0xC7 JUMPI PUSH0 DUP1 REVERT JUMPDEST POP PUSH2 0x85 PUSH2 0xD6 CALLDATASIZE PUSH1 0x4 PUSH2 0xA90 JUMP JUMPDEST PUSH2 0x396 JUMP JUMPDEST CALLVALUE DUP1 ISZERO PUSH2 0xE6 JUMPI PUSH0 DUP1 REVERT JUMPDEST POP PUSH2 0x85 PUSH2 0xF5 CALLDATASIZE PUSH1 0x4 PUSH2 0xB3F JUMP JUMPDEST PUSH2 0x5C3 JUMP JUMPDEST CALLVALUE DUP1 ISZERO PUSH2 0x105 JUMPI PUSH0 DUP1 REVERT JUMPDEST POP PUSH2 0x119 PUSH2 0x114 CALLDATASIZE PUSH1 0x4 PUSH2 0xA90 JUMP JUMPDEST PUSH2 0x828 JUMP JUMPDEST PUSH1 0x40 MLOAD PUSH1 0x1 PUSH1 0x1 PUSH1 0xA0 SHL SUB SWAP1 SWAP2 AND DUP2 MSTORE PUSH1 0x20 ADD PUSH2 0xB3 JUMP JUMPDEST CALLVALUE DUP1 ISZERO PUSH2 0x13C JUMPI PUSH0 DUP1 REVERT JUMPDEST POP PUSH2 0xA6 PUSH2 0x85C JUMP JUMPDEST CALLVALUE DUP1 ISZERO PUSH2 0x150 JUMPI PUSH0 DUP1 REVERT JUMPDEST POP PUSH2 0x85 PUSH2 0x8FA JUMP JUMPDEST PUSH0 CALLVALUE GT PUSH2 0x1AD JUMPI PUSH1 0x40 MLOAD PUSH3 0x461BCD PUSH1 0xE5 SHL DUP2 MSTORE PUSH1 0x20 PUSH1 0x4 DUP3 ADD MSTORE PUSH1 0x16 PUSH1 0x24 DUP3 ADD MSTORE PUSH32 0x45544820616D6F756E74206D757374206265203E203000000000000000000000 PUSH1 0x44 DUP3 ADD MSTORE PUSH1 0x64 ADD JUMPDEST PUSH1 0x40 MLOAD DUP1 SWAP2 SUB SWAP1 REVERT JUMPDEST PUSH0 PUSH1 0x1 DUP4 DUP4 PUSH1 0x40 MLOAD PUSH2 0x1C0 SWAP3 SWAP2 SWAP1 PUSH2 0xB95 JUMP JUMPDEST SWAP1 DUP2 MSTORE PUSH1 0x40 MLOAD SWAP1 DUP2 SWAP1 SUB PUSH1 0x20 ADD SWAP1 KECCAK256 SLOAD PUSH1 0x1 PUSH1 0x1 PUSH1 0xA0 SHL SUB AND SWAP1 POP DUP1 ISZERO PUSH2 0x2A8 JUMPI PUSH0 DUP2 PUSH1 0x1 PUSH1 0x1 PUSH1 0xA0 SHL SUB AND CALLVALUE PUSH1 0x40 MLOAD PUSH0 PUSH1 0x40 MLOAD DUP1 DUP4 SUB DUP2 DUP6 DUP8 GAS CALL SWAP3 POP POP POP RETURNDATASIZE DUP1 PUSH0 DUP2 EQ PUSH2 0x22A JUMPI PUSH1 0x40 MLOAD SWAP2 POP PUSH1 0x1F NOT PUSH1 0x3F RETURNDATASIZE ADD AND DUP3 ADD PUSH1 0x40 MSTORE RETURNDATASIZE DUP3 MSTORE RETURNDATASIZE PUSH0 PUSH1 0x20 DUP5 ADD RETURNDATACOPY PUSH2 0x22F JUMP JUMPDEST PUSH1 0x60 SWAP2 POP JUMPDEST POP POP SWAP1 POP DUP1 PUSH2 0x251 JUMPI PUSH1 0x40 MLOAD PUSH4 0x12171D83 PUSH1 0xE3 SHL DUP2 MSTORE PUSH1 0x4 ADD PUSH1 0x40 MLOAD DUP1 SWAP2 SUB SWAP1 REVERT JUMPDEST DUP2 PUSH1 0x1 PUSH1 0x1 PUSH1 0xA0 SHL SUB AND CALLER PUSH1 0x1 PUSH1 0x1 PUSH1 0xA0 SHL SUB AND PUSH32 0x7A502EADDF6DE613898D28B00BA86919CBE3FBC5C467339DA0253F1DCCFBE30E DUP7 DUP7 PUSH0 CALLVALUE PUSH1 0x40 MLOAD PUSH2 0x29A SWAP5 SWAP4 SWAP3 SWAP2 SWAP1 PUSH2 0xBCC JUMP JUMPDEST PUSH1 0x40 MLOAD DUP1 SWAP2 SUB SWAP1 LOG3 POP POP POP POP JUMP JUMPDEST DUP3 DUP3 PUSH1 0x40 MLOAD PUSH2 0x2B8 SWAP3 SWAP2 SWAP1 PUSH2 0xB95 JUMP JUMPDEST PUSH1 0x40 DUP1 MLOAD SWAP2 DUP3 SWAP1 SUB DUP3 KECCAK256 PUSH0 DUP4 MSTORE CALLVALUE PUSH1 0x20 DUP5 ADD MSTORE SWAP2 CALLER SWAP2 PUSH32 0x43BC5D5274ED0CAF87E36FF96A38CEC4BBB40322ABC8C0E1D2787A802100B2BB SWAP2 ADD PUSH1 0x40 MLOAD DUP1 SWAP2 SUB SWAP1 LOG3 JUMPDEST POP POP POP JUMP JUMPDEST PUSH0 PUSH1 0x20 DUP2 SWAP1 MSTORE SWAP1 DUP2 MSTORE PUSH1 0x40 SWAP1 KECCAK256 DUP1 SLOAD PUSH2 0x317 SWAP1 PUSH2 0xBFB JUMP JUMPDEST DUP1 PUSH1 0x1F ADD PUSH1 0x20 DUP1 SWAP2 DIV MUL PUSH1 0x20 ADD PUSH1 0x40 MLOAD SWAP1 DUP2 ADD PUSH1 0x40 MSTORE DUP1 SWAP3 SWAP2 SWAP1 DUP2 DUP2 MSTORE PUSH1 0x20 ADD DUP3 DUP1 SLOAD PUSH2 0x343 SWAP1 PUSH2 0xBFB JUMP JUMPDEST DUP1 ISZERO PUSH2 0x38E JUMPI DUP1 PUSH1 0x1F LT PUSH2 0x365 JUMPI PUSH2 0x100 DUP1 DUP4 SLOAD DIV MUL DUP4 MSTORE SWAP2 PUSH1 0x20 ADD SWAP2 PUSH2 0x38E JUMP JUMPDEST DUP3 ADD SWAP2 SWAP1 PUSH0 MSTORE PUSH1 0x20 PUSH0 KECCAK256 SWAP1 JUMPDEST DUP2 SLOAD DUP2 MSTORE SWAP1 PUSH1 0x1 ADD SWAP1 PUSH1 0x20 ADD DUP1 DUP4 GT PUSH2 0x371 JUMPI DUP3 SWAP1 SUB PUSH1 0x1F AND DUP3 ADD SWAP2 JUMPDEST POP POP POP POP POP DUP2 JUMP JUMPDEST PUSH0 DUP3 DUP3 DUP1 DUP1 PUSH1 0x1F ADD PUSH1 0x20 DUP1 SWAP2 DIV MUL PUSH1 0x20 ADD PUSH1 0x40 MLOAD SWAP1 DUP2 ADD PUSH1 0x40 MSTORE DUP1 SWAP4 SWAP3 SWAP2 SWAP1 DUP2 DUP2 MSTORE PUSH1 0x20 ADD DUP4 DUP4 DUP1 DUP3 DUP5 CALLDATACOPY PUSH0 SWAP3 ADD SWAP2 SWAP1 SWAP2 MSTORE POP POP DUP3 MLOAD SWAP3 SWAP4 POP POP POP PUSH2 0x41D JUMPI PUSH1 0x40 MLOAD PUSH3 0x461BCD PUSH1 0xE5 SHL DUP2 MSTORE PUSH1 0x20 PUSH1 0x4 DUP3 ADD MSTORE PUSH1 0x13 PUSH1 0x24 DUP3 ADD MSTORE PUSH32 0x5550492063616E6E6F7420626520656D70747900000000000000000000000000 PUSH1 0x44 DUP3 ADD MSTORE PUSH1 0x64 ADD PUSH2 0x1A4 JUMP JUMPDEST PUSH0 PUSH1 0x1 DUP5 DUP5 PUSH1 0x40 MLOAD PUSH2 0x430 SWAP3 SWAP2 SWAP1 PUSH2 0xB95 JUMP JUMPDEST SWAP1 DUP2 MSTORE PUSH1 0x40 MLOAD SWAP1 DUP2 SWAP1 SUB PUSH1 0x20 ADD SWAP1 KECCAK256 SLOAD PUSH1 0x1 PUSH1 0x1 PUSH1 0xA0 SHL SUB AND SWAP1 POP DUP1 ISZERO DUP1 ISZERO SWAP1 PUSH2 0x463 JUMPI POP PUSH1 0x1 PUSH1 0x1 PUSH1 0xA0 SHL SUB DUP2 AND CALLER EQ ISZERO JUMPDEST ISZERO PUSH2 0x485 JUMPI DUP4 DUP4 PUSH1 0x40 MLOAD PUSH4 0x48E30E19 PUSH1 0xE0 SHL DUP2 MSTORE PUSH1 0x4 ADD PUSH2 0x1A4 SWAP3 SWAP2 SWAP1 PUSH2 0xC33 JUMP JUMPDEST CALLER PUSH0 SWAP1 DUP2 MSTORE PUSH1 0x20 DUP2 SWAP1 MSTORE PUSH1 0x40 SWAP1 KECCAK256 DUP1 SLOAD DUP2 SWAP1 PUSH2 0x4A0 SWAP1 PUSH2 0xBFB JUMP JUMPDEST ISZERO SWAP1 POP PUSH2 0x519 JUMPI PUSH1 0x1 DUP2 PUSH1 0x40 MLOAD PUSH2 0x4B7 SWAP2 SWAP1 PUSH2 0xC4E JUMP JUMPDEST SWAP1 DUP2 MSTORE PUSH1 0x40 MLOAD SWAP1 DUP2 SWAP1 SUB PUSH1 0x20 ADD DUP2 KECCAK256 DUP1 SLOAD PUSH20 0xFFFFFFFFFFFFFFFFFFFFFFFFFFFFFFFFFFFFFFFF NOT AND SWAP1 SSTORE CALLER SWAP1 PUSH32 0x609932E3F0AB81708AD57CCCF85D188E591C96AF1D42405DA49BAC706F09B672 SWAP1 PUSH2 0x510 SWAP1 DUP5 SWAP1 PUSH2 0xCC0 JUMP JUMPDEST PUSH1 0x40 MLOAD DUP1 SWAP2 SUB SWAP1 LOG2 JUMPDEST CALLER PUSH0 SWAP1 DUP2 MSTORE PUSH1 0x20 DUP2 SWAP1 MSTORE PUSH1 0x40 SWAP1 KECCAK256 PUSH2 0x532 DUP6 DUP8 DUP4 PUSH2 0xDA2 JUMP JUMPDEST POP CALLER PUSH1 0x1 DUP7 DUP7 PUSH1 0x40 MLOAD PUSH2 0x546 SWAP3 SWAP2 SWAP1 PUSH2 0xB95 JUMP JUMPDEST SWAP1 DUP2 MSTORE PUSH1 0x40 MLOAD SWAP1 DUP2 SWAP1 SUB PUSH1 0x20 ADD DUP2 KECCAK256 DUP1 SLOAD PUSH1 0x1 PUSH1 0x1 PUSH1 0xA0 SHL SUB SWAP4 SWAP1 SWAP4 AND PUSH20 0xFFFFFFFFFFFFFFFFFFFFFFFFFFFFFFFFFFFFFFFF NOT SWAP1 SWAP4 AND SWAP3 SWAP1 SWAP3 OR SWAP1 SWAP2 SSTORE CALLER SWAP1 PUSH32 0xB6DA3BAD99D05B0C3427C43D1B921DB9009568D188763BBD0ECEF66A58A339F4 SWAP1 PUSH2 0x5B4 SWAP1 DUP9 SWAP1 DUP9 SWAP1 PUSH2 0xC33 JUMP JUMPDEST PUSH1 0x40 MLOAD DUP1 SWAP2 SUB SWAP1 LOG2 POP POP POP POP POP JUMP JUMPDEST PUSH1 0x1 PUSH1 0x1 PUSH1 0xA0 SHL SUB DUP5 AND PUSH2 0x5EA JUMPI PUSH1 0x40 MLOAD PUSH4 0xD92E233D PUSH1 0xE0 SHL DUP2 MSTORE PUSH1 0x4 ADD PUSH1 0x40 MLOAD DUP1 SWAP2 SUB SWAP1 REVERT JUMPDEST PUSH0 DUP2 GT PUSH2 0x639 JUMPI PUSH1 0x40 MLOAD PUSH3 0x461BCD PUSH1 0xE5 SHL DUP2 MSTORE PUSH1 0x20 PUSH1 0x4 DUP3 ADD MSTORE PUSH1 0x12 PUSH1 0x24 DUP3 ADD MSTORE PUSH32 0x616D6F756E74206D757374206265203E20300000000000000000000000000000 PUSH1 0x44 DUP3 ADD MSTORE PUSH1 0x64 ADD PUSH2 0x1A4 JUMP JUMPDEST PUSH0 PUSH1 0x1 DUP5 DUP5 PUSH1 0x40 MLOAD PUSH2 0x64C SWAP3 SWAP2 SWAP1 PUSH2 0xB95 JUMP JUMPDEST SWAP1 DUP2 MSTORE PUSH1 0x40 MLOAD SWAP1 DUP2 SWAP1 SUB PUSH1 0x20 ADD SWAP1 KECCAK256 SLOAD PUSH1 0x1 PUSH1 0x1 PUSH1 0xA0 SHL SUB AND SWAP1 POP DUP1 ISZERO PUSH2 0x7C5 JUMPI PUSH1 0x40 DUP1 MLOAD CALLER PUSH1 0x24 DUP3 ADD MSTORE PUSH1 0x1 PUSH1 0x1 PUSH1 0xA0 SHL SUB DUP4 DUP2 AND PUSH1 0x44 DUP4 ADD MSTORE PUSH1 0x64 DUP1 DUP4 ADD DUP7 SWAP1 MSTORE DUP4 MLOAD DUP1 DUP5 SUB SWAP1 SWAP2 ADD DUP2 MSTORE PUSH1 0x84 SWAP1 SWAP3 ADD DUP4 MSTORE PUSH1 0x20 DUP3 ADD DUP1 MLOAD PUSH28 0xFFFFFFFFFFFFFFFFFFFFFFFFFFFFFFFFFFFFFFFFFFFFFFFFFFFFFFFF AND PUSH4 0x23B872DD PUSH1 0xE0 SHL OR SWAP1 MSTORE SWAP2 MLOAD PUSH0 SWAP3 DUP4 SWAP3 SWAP1 DUP10 AND SWAP2 PUSH2 0x6E3 SWAP2 SWAP1 PUSH2 0xE5C JUMP JUMPDEST PUSH0 PUSH1 0x40 MLOAD DUP1 DUP4 SUB DUP2 PUSH0 DUP7 GAS CALL SWAP2 POP POP RETURNDATASIZE DUP1 PUSH0 DUP2 EQ PUSH2 0x71C JUMPI PUSH1 0x40 MLOAD SWAP2 POP PUSH1 0x1F NOT PUSH1 0x3F RETURNDATASIZE ADD AND DUP3 ADD PUSH1 0x40 MSTORE RETURNDATASIZE DUP3 MSTORE RETURNDATASIZE PUSH0 PUSH1 0x20 DUP5 ADD RETURNDATACOPY PUSH2 0x721 JUMP JUMPDEST PUSH1 0x60 SWAP2 POP JUMPDEST POP SWAP2 POP SWAP2 POP DUP2 ISZERO DUP1 PUSH2 0x74F JUMPI POP PUSH0 DUP2 MLOAD GT DUP1 ISZERO PUSH2 0x74F JUMPI POP DUP1 DUP1 PUSH1 0x20 ADD SWAP1 MLOAD DUP2 ADD SWAP1 PUSH2 0x74D SWAP2 SWAP1 PUSH2 0xE72 JUMP JUMPDEST ISZERO JUMPDEST ISZERO PUSH2 0x76D JUMPI PUSH1 0x40 MLOAD PUSH4 0x12171D83 PUSH1 0xE3 SHL DUP2 MSTORE PUSH1 0x4 ADD PUSH1 0x40 MLOAD DUP1 SWAP2 SUB SWAP1 REVERT JUMPDEST DUP3 PUSH1 0x1 PUSH1 0x1 PUSH1 0xA0 SHL SUB AND CALLER PUSH1 0x1 PUSH1 0x1 PUSH1 0xA0 SHL SUB AND PUSH32 0x7A502EADDF6DE613898D28B00BA86919CBE3FBC5C467339DA0253F1DCCFBE30E DUP9 DUP9 DUP12 DUP10 PUSH1 0x40 MLOAD PUSH2 0x7B6 SWAP5 SWAP4 SWAP3 SWAP2 SWAP1 PUSH2 0xBCC JUMP JUMPDEST PUSH1 0x40 MLOAD DUP1 SWAP2 SUB SWAP1 LOG3 POP POP PUSH2 0x821 JUMP JUMPDEST DUP4 DUP4 PUSH1 0x40 MLOAD PUSH2 0x7D5 SWAP3 SWAP2 SWAP1 PUSH2 0xB95 JUMP JUMPDEST PUSH1 0x40 DUP1 MLOAD SWAP2 DUP3 SWAP1 SUB DUP3 KECCAK256 PUSH1 0x1 PUSH1 0x1 PUSH1 0xA0 SHL SUB DUP9 AND DUP4 MSTORE PUSH1 0x20 DUP4 ADD DUP6 SWAP1 MSTORE SWAP2 CALLER SWAP2 PUSH32 0x43BC5D5274ED0CAF87E36FF96A38CEC4BBB40322ABC8C0E1D2787A802100B2BB SWAP2 ADD PUSH1 0x40 MLOAD DUP1 SWAP2 SUB SWAP1 LOG3 JUMPDEST POP POP POP POP POP JUMP JUMPDEST PUSH0 PUSH1 0x1 DUP4 DUP4 PUSH1 0x40 MLOAD PUSH2 0x83B SWAP3 SWAP2 SWAP1 PUSH2 0xB95 JUMP JUMPDEST SWAP1 DUP2 MSTORE PUSH1 0x40 MLOAD SWAP1 DUP2 SWAP1 SUB PUSH1 0x20 ADD SWAP1 KECCAK256 SLOAD PUSH1 0x1 PUSH1 0x1 PUSH1 0xA0 SHL SUB AND SWAP1 POP SWAP3 SWAP2 POP POP JUMP JUMPDEST CALLER PUSH0 SWAP1 DUP2 MSTORE PUSH1 0x20 DUP2 SWAP1 MSTORE PUSH1 0x40 SWAP1 KECCAK256 DUP1 SLOAD PUSH1 0x60 SWAP2 SWAP1 PUSH2 0x879 SWAP1 PUSH2 0xBFB JUMP JUMPDEST DUP1 PUSH1 0x1F ADD PUSH1 0x20 DUP1 SWAP2 DIV MUL PUSH1 0x20 ADD PUSH1 0x40 MLOAD SWAP1 DUP2 ADD PUSH1 0x40 MSTORE DUP1 SWAP3 SWAP2 SWAP1 DUP2 DUP2 MSTORE PUSH1 0x20 ADD DUP3 DUP1 SLOAD PUSH2 0x8A5 SWAP1 PUSH2 0xBFB JUMP JUMPDEST DUP1 ISZERO PUSH2 0x8F0 JUMPI DUP1 PUSH1 0x1F LT PUSH2 0x8C7 JUMPI PUSH2 0x100 DUP1 DUP4 SLOAD DIV MUL DUP4 MSTORE SWAP2 PUSH1 0x20 ADD SWAP2 PUSH2 0x8F0 JUMP JUMPDEST DUP3 ADD SWAP2 SWAP1 PUSH0 MSTORE PUSH1 0x20 PUSH0 KECCAK256 SWAP1 JUMPDEST DUP2 SLOAD DUP2 MSTORE SWAP1 PUSH1 0x1 ADD SWAP1 PUSH1 0x20 ADD DUP1 DUP4 GT PUSH2 0x8D3 JUMPI DUP3 SWAP1 SUB PUSH1 0x1F AND DUP3 ADD SWAP2 JUMPDEST POP POP POP POP POP SWAP1 POP SWAP1 JUMP JUMPDEST CALLER PUSH0 SWAP1 DUP2 MSTORE PUSH1 0x20 DUP2 SWAP1 MSTORE PUSH1 0x40 SWAP1 KECCAK256 DUP1 SLOAD DUP2 SWAP1 PUSH2 0x915 SWAP1 PUSH2 0xBFB JUMP JUMPDEST SWAP1 POP PUSH0 SUB PUSH2 0x965 JUMPI PUSH1 0x40 MLOAD PUSH3 0x461BCD PUSH1 0xE5 SHL DUP2 MSTORE PUSH1 0x20 PUSH1 0x4 DUP3 ADD MSTORE PUSH1 0xA PUSH1 0x24 DUP3 ADD MSTORE PUSH32 0x6E6F207570692073657400000000000000000000000000000000000000000000 PUSH1 0x44 DUP3 ADD MSTORE PUSH1 0x64 ADD PUSH2 0x1A4 JUMP JUMPDEST PUSH1 0x1 DUP2 PUSH1 0x40 MLOAD PUSH2 0x975 SWAP2 SWAP1 PUSH2 0xC4E JUMP JUMPDEST SWAP1 DUP2 MSTORE PUSH1 0x40 DUP1 MLOAD PUSH1 0x20 SWAP3 DUP2 SWAP1 SUB DUP4 ADD SWAP1 KECCAK256 DUP1 SLOAD PUSH20 0xFFFFFFFFFFFFFFFFFFFFFFFFFFFFFFFFFFFFFFFF NOT AND SWAP1 SSTORE CALLER PUSH0 SWAP1 DUP2 MSTORE SWAP2 DUP3 SWAP1 MSTORE DUP2 KECCAK256 PUSH2 0x9B5 SWAP2 PUSH2 0x9F9 JUMP JUMPDEST CALLER PUSH1 0x1 PUSH1 0x1 PUSH1 0xA0 SHL SUB AND PUSH32 0x609932E3F0AB81708AD57CCCF85D188E591C96AF1D42405DA49BAC706F09B672 DUP3 PUSH1 0x40 MLOAD PUSH2 0x9EE SWAP2 SWAP1 PUSH2 0xCC0 JUMP JUMPDEST PUSH1 0x40 MLOAD DUP1 SWAP2 SUB SWAP1 LOG2 POP JUMP JUMPDEST POP DUP1 SLOAD PUSH2 0xA05 SWAP1 PUSH2 0xBFB JUMP JUMPDEST PUSH0 DUP3 SSTORE DUP1 PUSH1 0x1F LT PUSH2 0xA14 JUMPI POP POP JUMP JUMPDEST PUSH1 0x1F ADD PUSH1 0x20 SWAP1 DIV SWAP1 PUSH0 MSTORE PUSH1 0x20 PUSH0 KECCAK256 SWAP1 DUP2 ADD SWAP1 PUSH2 0xA30 SWAP2 SWAP1 PUSH2 0xA33 JUMP JUMPDEST POP JUMP JUMPDEST JUMPDEST DUP1 DUP3 GT ISZERO PUSH2 0xA47 JUMPI PUSH0 DUP2 SSTORE PUSH1 0x1 ADD PUSH2 0xA34 JUMP JUMPDEST POP SWAP1 JUMP JUMPDEST PUSH0 DUP1 DUP4 PUSH1 0x1F DUP5 ADD SLT PUSH2 0xA5B JUMPI PUSH0 DUP1 REVERT JUMPDEST POP DUP2 CALLDATALOAD PUSH8 0xFFFFFFFFFFFFFFFF DUP2 GT ISZERO PUSH2 0xA72 JUMPI PUSH0 DUP1 REVERT JUMPDEST PUSH1 0x20 DUP4 ADD SWAP2 POP DUP4 PUSH1 0x20 DUP3 DUP6 ADD ADD GT ISZERO PUSH2 0xA89 JUMPI PUSH0 DUP1 REVERT JUMPDEST SWAP3 POP SWAP3 SWAP1 POP JUMP JUMPDEST PUSH0 DUP1 PUSH1 0x20 DUP4 DUP6 SUB SLT ISZERO PUSH2 0xAA1 JUMPI PUSH0 DUP1 REVERT JUMPDEST DUP3 CALLDATALOAD PUSH8 0xFFFFFFFFFFFFFFFF DUP2 GT ISZERO PUSH2 0xAB7 JUMPI PUSH0 DUP1 REVERT JUMPDEST PUSH2 0xAC3 DUP6 DUP3 DUP7 ADD PUSH2 0xA4B JUMP JUMPDEST SWAP1 SWAP7 SWAP1 SWAP6 POP SWAP4 POP POP POP POP JUMP JUMPDEST DUP1 CALLDATALOAD PUSH1 0x1 PUSH1 0x1 PUSH1 0xA0 SHL SUB DUP2 AND DUP2 EQ PUSH2 0xAE5 JUMPI PUSH0 DUP1 REVERT JUMPDEST SWAP2 SWAP1 POP JUMP JUMPDEST PUSH0 PUSH1 0x20 DUP3 DUP5 SUB SLT ISZERO PUSH2 0xAFA JUMPI PUSH0 DUP1 REVERT JUMPDEST PUSH2 0xB03 DUP3 PUSH2 0xACF JUMP JUMPDEST SWAP4 SWAP3 POP POP POP JUMP JUMPDEST PUSH1 0x20 DUP2 MSTORE PUSH0 DUP3 MLOAD DUP1 PUSH1 0x20 DUP5 ADD MSTORE DUP1 PUSH1 0x20 DUP6 ADD PUSH1 0x40 DUP6 ADD MCOPY PUSH0 PUSH1 0x40 DUP3 DUP6 ADD ADD MSTORE PUSH1 0x40 PUSH1 0x1F NOT PUSH1 0x1F DUP4 ADD AND DUP5 ADD ADD SWAP2 POP POP SWAP3 SWAP2 POP POP JUMP JUMPDEST PUSH0 DUP1 PUSH0 DUP1 PUSH1 0x60 DUP6 DUP8 SUB SLT ISZERO PUSH2 0xB52 JUMPI PUSH0 DUP1 REVERT JUMPDEST PUSH2 0xB5B DUP6 PUSH2 0xACF JUMP JUMPDEST SWAP4 POP PUSH1 0x20 DUP6 ADD CALLDATALOAD PUSH8 0xFFFFFFFFFFFFFFFF DUP2 GT ISZERO PUSH2 0xB76 JUMPI PUSH0 DUP1 REVERT JUMPDEST PUSH2 0xB82 DUP8 DUP3 DUP9 ADD PUSH2 0xA4B JUMP JUMPDEST SWAP6 SWAP9 SWAP1 SWAP8 POP SWAP5 SWAP6 PUSH1 0x40 ADD CALLDATALOAD SWAP5 SWAP4 POP POP POP POP JUMP JUMPDEST DUP2 DUP4 DUP3 CALLDATACOPY PUSH0 SWAP2 ADD SWAP1 DUP2 MSTORE SWAP2 SWAP1 POP JUMP JUMPDEST DUP2 DUP4 MSTORE DUP2 DUP2 PUSH1 0x20 DUP6 ADD CALLDATACOPY POP PUSH0 DUP3 DUP3 ADD PUSH1 0x20 SWAP1 DUP2 ADD SWAP2 SWAP1 SWAP2 MSTORE PUSH1 0x1F SWAP1 SWAP2 ADD PUSH1 0x1F NOT AND SWAP1 SWAP2 ADD ADD SWAP1 JUMP JUMPDEST PUSH1 0x60 DUP2 MSTORE PUSH0 PUSH2 0xBDF PUSH1 0x60 DUP4 ADD DUP7 DUP9 PUSH2 0xBA4 JUMP JUMPDEST PUSH1 0x1 PUSH1 0x1 PUSH1 0xA0 SHL SUB SWAP5 SWAP1 SWAP5 AND PUSH1 0x20 DUP4 ADD MSTORE POP PUSH1 0x40 ADD MSTORE SWAP3 SWAP2 POP POP JUMP JUMPDEST PUSH1 0x1 DUP2 DUP2 SHR SWAP1 DUP3 AND DUP1 PUSH2 0xC0F JUMPI PUSH1 0x7F DUP3 AND SWAP2 POP JUMPDEST PUSH1 0x20 DUP3 LT DUP2 SUB PUSH2 0xC2D JUMPI PUSH4 0x4E487B71 PUSH1 0xE0 SHL PUSH0 MSTORE PUSH1 0x22 PUSH1 0x4 MSTORE PUSH1 0x24 PUSH0 REVERT JUMPDEST POP SWAP2 SWAP1 POP JUMP JUMPDEST PUSH1 0x20 DUP2 MSTORE PUSH0 PUSH2 0xC46 PUSH1 0x20 DUP4 ADD DUP5 DUP7 PUSH2 0xBA4 JUMP JUMPDEST SWAP5 SWAP4 POP POP POP POP JUMP JUMPDEST PUSH0 DUP1 DUP4 SLOAD PUSH2 0xC5B DUP2 PUSH2 0xBFB JUMP JUMPDEST PUSH1 0x1 DUP3 DUP2 AND DUP1 ISZERO PUSH2 0xC73 JUMPI PUSH1 0x1 DUP2 EQ PUSH2 0xC88 JUMPI PUSH2 0xCB4 JUMP JUMPDEST PUSH1 0xFF NOT DUP5 AND DUP8 MSTORE DUP3 ISZERO ISZERO DUP4 MUL DUP8 ADD SWAP5 POP PUSH2 0xCB4 JUMP JUMPDEST DUP8 PUSH0 MSTORE PUSH1 0x20 DUP1 PUSH0 KECCAK256 PUSH0 JUMPDEST DUP6 DUP2 LT ISZERO PUSH2 0xCAB JUMPI DUP2 SLOAD DUP11 DUP3 ADD MSTORE SWAP1 DUP5 ADD SWAP1 DUP3 ADD PUSH2 0xC92 JUMP JUMPDEST POP POP POP DUP3 DUP8 ADD SWAP5 POP JUMPDEST POP SWAP3 SWAP7 SWAP6 POP POP POP POP POP POP JUMP JUMPDEST PUSH0 PUSH1 0x20 DUP1 DUP4 MSTORE PUSH0 DUP5 SLOAD PUSH2 0xCD2 DUP2 PUSH2 0xBFB JUMP JUMPDEST DUP1 PUSH1 0x20 DUP8 ADD MSTORE PUSH1 0x40 PUSH1 0x1 DUP1 DUP5 AND PUSH0 DUP2 EQ PUSH2 0xCF3 JUMPI PUSH1 0x1 DUP2 EQ PUSH2 0xD0F JUMPI PUSH2 0xD3C JUMP JUMPDEST PUSH1 0xFF NOT DUP6 AND PUSH1 0x40 DUP11 ADD MSTORE PUSH1 0x40 DUP5 ISZERO ISZERO PUSH1 0x5 SHL DUP11 ADD ADD SWAP6 POP PUSH2 0xD3C JUMP JUMPDEST DUP10 PUSH0 MSTORE PUSH1 0x20 PUSH0 KECCAK256 PUSH0 JUMPDEST DUP6 DUP2 LT ISZERO PUSH2 0xD33 JUMPI DUP2 SLOAD DUP12 DUP3 ADD DUP7 ADD MSTORE SWAP1 DUP4 ADD SWAP1 DUP9 ADD PUSH2 0xD18 JUMP JUMPDEST DUP11 ADD PUSH1 0x40 ADD SWAP7 POP POP JUMPDEST POP SWAP4 SWAP9 SWAP8 POP POP POP POP POP POP POP POP JUMP JUMPDEST PUSH4 0x4E487B71 PUSH1 0xE0 SHL PUSH0 MSTORE PUSH1 0x41 PUSH1 0x4 MSTORE PUSH1 0x24 PUSH0 REVERT JUMPDEST PUSH1 0x1F DUP3 GT ISZERO PUSH2 0x2FA JUMPI DUP1 PUSH0 MSTORE PUSH1 0x20 PUSH0 KECCAK256 PUSH1 0x1F DUP5 ADD PUSH1 0x5 SHR DUP2 ADD PUSH1 0x20 DUP6 LT ISZERO PUSH2 0xD83 JUMPI POP DUP1 JUMPDEST PUSH1 0x1F DUP5 ADD PUSH1 0x5 SHR DUP3 ADD SWAP2 POP JUMPDEST DUP2 DUP2 LT ISZERO PUSH2 0x821 JUMPI PUSH0 DUP2 SSTORE PUSH1 0x1 ADD PUSH2 0xD8F JUMP JUMPDEST PUSH8 0xFFFFFFFFFFFFFFFF DUP4 GT ISZERO PUSH2 0xDBA JUMPI PUSH2 0xDBA PUSH2 0xD4A JUMP JUMPDEST PUSH2 0xDCE DUP4 PUSH2 0xDC8 DUP4 SLOAD PUSH2 0xBFB JUMP JUMPDEST DUP4 PUSH2 0xD5E JUMP JUMPDEST PUSH0 PUSH1 0x1F DUP5 GT PUSH1 0x1 DUP2 EQ PUSH2 0xDFF JUMPI PUSH0 DUP6 ISZERO PUSH2 0xDE8 JUMPI POP DUP4 DUP3 ADD CALLDATALOAD JUMPDEST PUSH0 NOT PUSH1 0x3 DUP8 SWAP1 SHL SHR NOT AND PUSH1 0x1 DUP7 SWAP1 SHL OR DUP4 SSTORE PUSH2 0x821 JUMP JUMPDEST PUSH0 DUP4 DUP2 MSTORE PUSH1 0x20 DUP2 KECCAK256 PUSH1 0x1F NOT DUP8 AND SWAP2 JUMPDEST DUP3 DUP2 LT ISZERO PUSH2 0xE2E JUMPI DUP7 DUP6 ADD CALLDATALOAD DUP3 SSTORE PUSH1 0x20 SWAP5 DUP6 ADD SWAP5 PUSH1 0x1 SWAP1 SWAP3 ADD SWAP2 ADD PUSH2 0xE0E JUMP JUMPDEST POP DUP7 DUP3 LT ISZERO PUSH2 0xE4A JUMPI PUSH0 NOT PUSH1 0xF8 DUP9 PUSH1 0x3 SHL AND SHR NOT DUP5 DUP8 ADD CALLDATALOAD AND DUP2 SSTORE JUMPDEST POP POP PUSH1 0x1 DUP6 PUSH1 0x1 SHL ADD DUP4 SSTORE POP POP POP POP POP JUMP JUMPDEST PUSH0 DUP3 MLOAD DUP1 PUSH1 0x20 DUP6 ADD DUP5 MCOPY PUSH0 SWAP3 ADD SWAP2 DUP3 MSTORE POP SWAP2 SWAP1 POP JUMP JUMPDEST PUSH0 PUSH1 0x20 DUP3 DUP5 SUB SLT ISZERO PUSH2 0xE82 JUMPI PUSH0 DUP1 REVERT JUMPDEST DUP2 MLOAD DUP1 ISZERO ISZERO DUP2 EQ PUSH2 0xB03 JUMPI PUSH0 DUP1 REVERT INVALID LOG2 PUSH5 0x6970667358 0x22 SLT KECCAK256 SWAP12 ORIGIN 0xB2 0x24 PUSH9 0x27B6C5A2677CB26411 0x23 0xC2 0xCB PUSH6 0x44833516ECF 0xD6 0x1E CALLCODE 0xED 0xA5 SWAP1 AND LOG4 PUSH5 0x736F6C6343 STOP ADDMOD NOT STOP CALLER "
    },
    "gasEstimates": {
      "creation": {
        "codeDepositCost": "756600",
        "executionCost": "790",
        "totalCost": "757390"
      },
      "external": {
        "addressToUPI(address)": "infinite",
        "getWalletByUPI(string)": "infinite",
        "myUPI()": "infinite",
        "registerUPI(string)": "infinite",
        "sendPayment(address,string,uint256)": "infinite",
        "sendPaymentETH(string)": "infinite",
        "unregisterUPI()": "infinite"
      }
    },
    "methodIdentifiers": {
      "addressToUPI(address)": "0cd4a7c0",
      "getWalletByUPI(string)": "673cf6bc",
      "myUPI()": "9af8297f",
      "registerUPI(string)": "1124c7ef",
      "sendPayment(address,string,uint256)": "19f8a37e",
      "sendPaymentETH(string)": "075895c7",
      "unregisterUPI()": "d1dc4ad3"
    }
  },
  "storageLayout": {
    "storage": [
      {
        "astId": 53,
        "contract": "KryptUPI.sol:UPIRegistryPayments",
        "label": "addressToUPI",
        "offset": 0,
        "slot": "0",
        "type": "t_mapping(t_address,t_string_storage)"
      },
      {
        "astId": 57,
        "contract": "KryptUPI.sol:UPIRegistryPayments",
        "label": "upiToAddress",
        "offset": 0,
        "slot": "1",
        "type": "t_mapping(t_string_memory_ptr,t_address)"
      }
    ],
    "types": {
      "t_address": {
        "encoding": "inplace",
        "label": "address",
        "numberOfBytes": "20"
      },
      "t_mapping(t_address,t_string_storage)": {
        "encoding": "mapping",
        "key": "t_address",
        "label": "mapping(address => string)",
        "numberOfBytes": "32",
        "value": "t_string_storage"
      },
      "t_mapping(t_string_memory_ptr,t_address)": {
        "encoding": "mapping",
        "key": "t_string_memory_ptr",
        "label": "mapping(string => address)",
        "numberOfBytes": "32",
        "value": "t_address"
      },
      "t_string_memory_ptr": {
        "encoding": "bytes",
        "label": "string",
        "numberOfBytes": "32"
      },
      "t_string_storage": {
        "encoding": "bytes",
        "label": "string",
        "numberOfBytes": "32"
      }
    }
  },
  "userdoc": {
    "errors": {
      "UPIAlreadyRegistered(string)": [
        {
          "notice": "Custom errors"
        }
      ]
    },
    "events": {
      "UPIRegistered(address,string)": {
        "notice": "Events"
      }
    },
    "kind": "user",
    "methods": {
      "addressToUPI(address)": {
        "notice": "Mappings"
      },
      "myUPI()": {
        "notice": "---------- Helpers ----------"
      },
      "registerUPI(string)": {
        "notice": "---------- UPI registration ----------"
      },
      "sendPayment(address,string,uint256)": {
        "notice": "---------- ERC20 Payments (fixed for USDT etc.) ----------"
      },
      "sendPaymentETH(string)": {
        "notice": "---------- ETH Payments ----------"
      }
    },
    "version": 1
  }
}